{
  "contractName": "rLoan",
  "abi": [
    {
      "inputs": [
        {
          "internalType": "address[3]",
          "name": "_tokens",
          "type": "address[3]"
        },
        {
          "internalType": "address",
          "name": "_royale",
          "type": "address"
        }
      ],
      "stateMutability": "nonpayable",
      "type": "constructor"
    },
    {
      "anonymous": false,
      "inputs": [
        {
          "indexed": false,
          "internalType": "address",
          "name": "adder",
          "type": "address"
        },
        {
          "indexed": false,
          "internalType": "uint256",
          "name": "numberOfSignees",
          "type": "uint256"
        }
      ],
      "name": "addedRequiredSignee",
      "type": "event"
    },
    {
      "anonymous": false,
      "inputs": [
        {
          "indexed": false,
          "internalType": "uint256",
          "name": "loanID",
          "type": "uint256"
        }
      ],
      "name": "approved",
      "type": "event"
    },
    {
      "anonymous": false,
      "inputs": [
        {
          "indexed": false,
          "internalType": "address",
          "name": "by",
          "type": "address"
        },
        {
          "indexed": false,
          "internalType": "uint256[3]",
          "name": "requestedAmount",
          "type": "uint256[3]"
        },
        {
          "indexed": false,
          "internalType": "uint256[3]",
          "name": "remainingAmount",
          "type": "uint256[3]"
        },
        {
          "indexed": false,
          "internalType": "uint256",
          "name": "loanID",
          "type": "uint256"
        }
      ],
      "name": "loanFulfilled",
      "type": "event"
    },
    {
      "anonymous": false,
      "inputs": [
        {
          "indexed": false,
          "internalType": "address",
          "name": "by",
          "type": "address"
        },
        {
          "indexed": false,
          "internalType": "uint256[3]",
          "name": "repayedAmount",
          "type": "uint256[3]"
        },
        {
          "indexed": false,
          "internalType": "uint256[3]",
          "name": "amountRemaining",
          "type": "uint256[3]"
        },
        {
          "indexed": false,
          "internalType": "uint256",
          "name": "loanID",
          "type": "uint256"
        }
      ],
      "name": "loanRepayed",
      "type": "event"
    },
    {
      "anonymous": false,
      "inputs": [
        {
          "indexed": false,
          "internalType": "address",
          "name": "by",
          "type": "address"
        },
        {
          "indexed": false,
          "internalType": "uint256[3]",
          "name": "amounts",
          "type": "uint256[3]"
        },
        {
          "indexed": false,
          "internalType": "uint256",
          "name": "loanID",
          "type": "uint256"
        }
      ],
      "name": "loanRequested",
      "type": "event"
    },
    {
      "anonymous": false,
      "inputs": [
        {
          "indexed": false,
          "internalType": "address",
          "name": "by",
          "type": "address"
        },
        {
          "indexed": false,
          "internalType": "uint256[3]",
          "name": "requestedAmount",
          "type": "uint256[3]"
        },
        {
          "indexed": false,
          "internalType": "uint256[3]",
          "name": "remainingAmount",
          "type": "uint256[3]"
        },
        {
          "indexed": false,
          "internalType": "uint256",
          "name": "loanID",
          "type": "uint256"
        }
      ],
      "name": "loanWithdrawn",
      "type": "event"
    },
    {
      "anonymous": false,
      "inputs": [
        {
          "indexed": false,
          "internalType": "address",
          "name": "signee",
          "type": "address"
        },
        {
          "indexed": false,
          "internalType": "uint256",
          "name": "loanID",
          "type": "uint256"
        }
      ],
      "name": "signed",
      "type": "event"
    },
    {
      "anonymous": false,
      "inputs": [
        {
          "indexed": false,
          "internalType": "address",
          "name": "signee",
          "type": "address"
        }
      ],
      "name": "signeeAdded",
      "type": "event"
    },
    {
      "anonymous": false,
      "inputs": [
        {
          "indexed": false,
          "internalType": "address",
          "name": "signee",
          "type": "address"
        }
      ],
      "name": "signeeRemoved",
      "type": "event"
    },
    {
      "anonymous": false,
      "inputs": [
        {
          "indexed": false,
          "internalType": "address",
          "name": "by",
          "type": "address"
        },
        {
          "indexed": false,
          "internalType": "uint256[3]",
          "name": "repayedAmount",
          "type": "uint256[3]"
        },
        {
          "indexed": false,
          "internalType": "uint256[3]",
          "name": "amountRemaining",
          "type": "uint256[3]"
        },
        {
          "indexed": false,
          "internalType": "uint256",
          "name": "loanID",
          "type": "uint256"
        }
      ],
      "name": "wholeLoanRepayed",
      "type": "event"
    },
    {
      "inputs": [],
      "name": "MAX_SIGNEE_COUNT",
      "outputs": [
        {
          "internalType": "uint256",
          "name": "",
          "type": "uint256"
        }
      ],
      "stateMutability": "view",
      "type": "function"
    },
    {
      "inputs": [
        {
          "internalType": "address",
          "name": "",
          "type": "address"
        },
        {
          "internalType": "uint256",
          "name": "",
          "type": "uint256"
        }
      ],
      "name": "confirmations",
      "outputs": [
        {
          "internalType": "bool",
          "name": "",
          "type": "bool"
        }
      ],
      "stateMutability": "view",
      "type": "function"
    },
    {
      "inputs": [
        {
          "internalType": "address",
          "name": "",
          "type": "address"
        }
      ],
      "name": "isSignee",
      "outputs": [
        {
          "internalType": "bool",
          "name": "",
          "type": "bool"
        }
      ],
      "stateMutability": "view",
      "type": "function"
    },
    {
      "inputs": [],
      "name": "ownerAddress",
      "outputs": [
        {
          "internalType": "address",
          "name": "",
          "type": "address"
        }
      ],
      "stateMutability": "view",
      "type": "function"
    },
    {
      "inputs": [],
      "name": "required",
      "outputs": [
        {
          "internalType": "uint256",
          "name": "",
          "type": "uint256"
        }
      ],
      "stateMutability": "view",
      "type": "function"
    },
    {
      "inputs": [],
      "name": "royale",
      "outputs": [
        {
          "internalType": "contract RoyaleInterface",
          "name": "",
          "type": "address"
        }
      ],
      "stateMutability": "view",
      "type": "function"
    },
    {
      "inputs": [
        {
          "internalType": "uint256",
          "name": "",
          "type": "uint256"
        }
      ],
      "name": "signees",
      "outputs": [
        {
          "internalType": "address",
          "name": "",
          "type": "address"
        }
      ],
      "stateMutability": "view",
      "type": "function"
    },
    {
      "inputs": [
        {
          "internalType": "uint256",
          "name": "",
          "type": "uint256"
        }
      ],
      "name": "totalApprovedLoan",
      "outputs": [
        {
          "internalType": "uint256",
          "name": "",
          "type": "uint256"
        }
      ],
      "stateMutability": "view",
      "type": "function"
    },
    {
      "inputs": [
        {
          "internalType": "uint256",
          "name": "",
          "type": "uint256"
        }
      ],
      "name": "totalLoanTaken",
      "outputs": [
        {
          "internalType": "uint256",
          "name": "",
          "type": "uint256"
        }
      ],
      "stateMutability": "view",
      "type": "function"
    },
    {
      "inputs": [],
      "name": "transactionCount",
      "outputs": [
        {
          "internalType": "uint256",
          "name": "",
          "type": "uint256"
        }
      ],
      "stateMutability": "view",
      "type": "function"
    },
    {
      "inputs": [
        {
          "internalType": "uint256",
          "name": "",
          "type": "uint256"
        }
      ],
      "name": "transactions",
      "outputs": [
        {
          "internalType": "uint256",
          "name": "transactionId",
          "type": "uint256"
        },
        {
          "internalType": "address",
          "name": "iGamingCompany",
          "type": "address"
        },
        {
          "internalType": "bool",
          "name": "isGamingCompanySigned",
          "type": "bool"
        },
        {
          "internalType": "bool",
          "name": "approved",
          "type": "bool"
        },
        {
          "internalType": "bool",
          "name": "executed",
          "type": "bool"
        }
      ],
      "stateMutability": "view",
      "type": "function"
    },
    {
      "inputs": [
        {
          "internalType": "uint256[3]",
          "name": "amounts",
          "type": "uint256[3]"
        }
      ],
      "name": "requestLoan",
      "outputs": [],
      "stateMutability": "nonpayable",
      "type": "function"
    },
    {
      "inputs": [
        {
          "internalType": "uint256",
          "name": "_loanID",
          "type": "uint256"
        }
      ],
      "name": "signTransaction",
      "outputs": [],
      "stateMutability": "nonpayable",
      "type": "function"
    },
    {
      "inputs": [
        {
          "internalType": "uint256",
          "name": "_loanID",
          "type": "uint256"
        }
      ],
      "name": "confirmLoan",
      "outputs": [],
      "stateMutability": "nonpayable",
      "type": "function"
    },
    {
      "inputs": [
        {
          "internalType": "uint256",
          "name": "_loanID",
          "type": "uint256"
        }
      ],
      "name": "getTransactionDetail",
      "outputs": [
        {
          "components": [
            {
              "internalType": "uint256",
              "name": "transactionId",
              "type": "uint256"
            },
            {
              "internalType": "address",
              "name": "iGamingCompany",
              "type": "address"
            },
            {
              "internalType": "bool",
              "name": "isGamingCompanySigned",
              "type": "bool"
            },
            {
              "internalType": "uint256[3]",
              "name": "tokenAmounts",
              "type": "uint256[3]"
            },
            {
              "internalType": "uint256[3]",
              "name": "remAmt",
              "type": "uint256[3]"
            },
            {
              "internalType": "bool",
              "name": "approved",
              "type": "bool"
            },
            {
              "internalType": "bool",
              "name": "executed",
              "type": "bool"
            }
          ],
          "internalType": "struct rLoan.Transaction",
          "name": "",
          "type": "tuple"
        }
      ],
      "stateMutability": "view",
      "type": "function"
    },
    {
      "inputs": [
        {
          "internalType": "uint256",
          "name": "_loanID",
          "type": "uint256"
        }
      ],
      "name": "checkLoanApproved",
      "outputs": [
        {
          "internalType": "bool",
          "name": "",
          "type": "bool"
        }
      ],
      "stateMutability": "view",
      "type": "function"
    },
    {
      "inputs": [
        {
          "internalType": "uint256",
          "name": "_required",
          "type": "uint256"
        }
      ],
      "name": "setRequiredSignee",
      "outputs": [],
      "stateMutability": "nonpayable",
      "type": "function"
    },
    {
      "inputs": [
        {
          "internalType": "address",
          "name": "signee",
          "type": "address"
        }
      ],
      "name": "addSignee",
      "outputs": [],
      "stateMutability": "nonpayable",
      "type": "function"
    },
    {
      "inputs": [
        {
          "internalType": "address",
          "name": "signee",
          "type": "address"
        }
      ],
      "name": "removeSignee",
      "outputs": [],
      "stateMutability": "nonpayable",
      "type": "function"
    },
    {
      "inputs": [
        {
          "internalType": "uint256[3]",
          "name": "amounts",
          "type": "uint256[3]"
        },
        {
          "internalType": "uint256",
          "name": "_loanID",
          "type": "uint256"
        }
      ],
      "name": "withdrawLoan",
      "outputs": [],
      "stateMutability": "nonpayable",
      "type": "function"
    },
    {
      "inputs": [
        {
          "internalType": "uint256[3]",
          "name": "_amounts",
          "type": "uint256[3]"
        },
        {
          "internalType": "uint256",
          "name": "_loanId",
          "type": "uint256"
        }
      ],
      "name": "repayLoan",
      "outputs": [],
      "stateMutability": "nonpayable",
      "type": "function"
    },
    {
      "inputs": [
        {
          "internalType": "uint8",
          "name": "_number",
          "type": "uint8"
        }
      ],
      "name": "getTotalTakenLoan",
      "outputs": [
        {
          "internalType": "uint256",
          "name": "",
          "type": "uint256"
        }
      ],
      "stateMutability": "view",
      "type": "function"
    },
    {
      "inputs": [
        {
          "internalType": "uint8",
          "name": "_number",
          "type": "uint8"
        }
      ],
      "name": "getTotalApprovedLoan",
      "outputs": [
        {
          "internalType": "uint256",
          "name": "",
          "type": "uint256"
        }
      ],
      "stateMutability": "view",
      "type": "function"
    }
  ],
  "bytecode": "0x608060405260006009553480156200001657600080fd5b5060405162002f4a38038062002f4a83398181016040528101906200003c9190620001e2565b33600c60006101000a81548173ffffffffffffffffffffffffffffffffffffffff021916908373ffffffffffffffffffffffffffffffffffffffff16021790555060005b600360ff168160ff1610156200014457828160ff1660038110620000a057fe5b602002015160008260ff1660038110620000b657fe5b0160006101000a81548173ffffffffffffffffffffffffffffffffffffffff021916908373ffffffffffffffffffffffffffffffffffffffff16021790555081600b60006101000a81548173ffffffffffffffffffffffffffffffffffffffff021916908373ffffffffffffffffffffffffffffffffffffffff160217905550808060010191505062000080565b505050620002c2565b6000815190506200015e81620002a8565b92915050565b600082601f8301126200017657600080fd5b60036200018d620001878262000251565b62000223565b91508183856020840282011115620001a457600080fd5b60005b83811015620001d85781620001bd88826200014d565b845260208401935060208301925050600181019050620001a7565b5050505092915050565b60008060808385031215620001f657600080fd5b6000620002068582860162000164565b925050606062000219858286016200014d565b9150509250929050565b6000604051905081810181811067ffffffffffffffff821117156200024757600080fd5b8060405250919050565b600067ffffffffffffffff8211156200026957600080fd5b602082029050919050565b6000620002818262000288565b9050919050565b600073ffffffffffffffffffffffffffffffffffffffff82169050919050565b620002b38162000274565b8114620002bf57600080fd5b50565b612c7880620002d26000396000f3fe608060405234801561001057600080fd5b506004361061014d5760003560e01c80638f84aa09116100c3578063b0580ce91161007c578063b0580ce9146103c4578063b77bf600146103e0578063cbd249f4146103fe578063d80a93d61461042e578063dc8452cd1461045e578063f84fd9ef1461047c5761014d565b80638f84aa09146102c65780639ace38c2146102e45780639b364162146103185780639ff512fa14610334578063aa37dca214610364578063ae8df6a6146103945761014d565b8063277514e011610115578063277514e0146102085780632f094632146102245780633d591bc2146102425780635d9ec2101461025e57806362a945d11461027a5780637a325e56146102965761014d565b80630385b5811461015257806304971367146101825780630f8cdd881461019e57806310266c1c146101ba5780631880432a146101ea575b600080fd5b61016c600480360381019061016791906121a6565b6104ac565b604051610179919061284a565b60405180910390f35b61019c600480360381019061019791906122c2565b6104cc565b005b6101b860048036038101906101b391906121a6565b6106a1565b005b6101d460048036038101906101cf91906122c2565b6107f0565b6040516101e191906129bc565b60405180910390f35b6101f2610808565b6040516101ff91906129bc565b60405180910390f35b610222600480360381019061021d9190612234565b61080d565b005b61022c610d72565b6040516102399190612865565b60405180910390f35b61025c60048036038101906102579190612234565b610d98565b005b610278600480360381019061027391906122c2565b6111f4565b005b610294600480360381019061028f919061220b565b61131c565b005b6102b060048036038101906102ab91906122eb565b6113e6565b6040516102bd91906129bc565b60405180910390f35b6102ce611401565b6040516102db9190612760565b60405180910390f35b6102fe60048036038101906102f991906122c2565b611427565b60405161030f9594939291906129d7565b60405180910390f35b610332600480360381019061032d91906121a6565b6114a4565b005b61034e600480360381019061034991906122c2565b611731565b60405161035b91906129a0565b60405180910390f35b61037e600480360381019061037991906122c2565b611899565b60405161038b91906129bc565b60405180910390f35b6103ae60048036038101906103a991906122c2565b6118b1565b6040516103bb919061284a565b60405180910390f35b6103de60048036038101906103d991906122c2565b6118de565b005b6103e86119ba565b6040516103f591906129bc565b60405180910390f35b610418600480360381019061041391906122eb565b6119c0565b60405161042591906129bc565b60405180910390f35b610448600480360381019061044391906122c2565b6119db565b6040516104559190612760565b60405180910390f35b610466611a17565b60405161047391906129bc565b60405180910390f35b610496600480360381019061049191906121cf565b611a1d565b6040516104a3919061284a565b60405180910390f35b60066020528060005260406000206000915054906101000a900460ff1681565b33600660008273ffffffffffffffffffffffffffffffffffffffff1673ffffffffffffffffffffffffffffffffffffffff16815260200190815260200160002060009054906101000a900460ff1661052357600080fd5b8160008111801561053657506009548111155b61053f57600080fd5b3383600460008373ffffffffffffffffffffffffffffffffffffffff1673ffffffffffffffffffffffffffffffffffffffff168152602001908152602001600020600082815260200190815260200160002060009054906101000a900460ff16156105a957600080fd5b6001600460003373ffffffffffffffffffffffffffffffffffffffff1673ffffffffffffffffffffffffffffffffffffffff168152602001908152602001600020600087815260200190815260200160002060006101000a81548160ff0219169083151502179055507f24e5bfa739656f6dd56210dbd8ccbfdabcae46f85752164562c69dffd61a320b33866040516106439291906127f8565b60405180910390a161065485611a4c565b1561069a5761066285611b5a565b7f7d4061e68fab364906497bb959d95ad3f052a3978fed6ce9942a2b8f737aae548560405161069191906129bc565b60405180910390a15b5050505050565b600c60009054906101000a900473ffffffffffffffffffffffffffffffffffffffff1673ffffffffffffffffffffffffffffffffffffffff163373ffffffffffffffffffffffffffffffffffffffff16146106fb57600080fd5b6001600660008373ffffffffffffffffffffffffffffffffffffffff1673ffffffffffffffffffffffffffffffffffffffff16815260200190815260200160002060006101000a81548160ff0219169083151502179055506008819080600181540180825580915050600190039060005260206000200160009091909190916101000a81548173ffffffffffffffffffffffffffffffffffffffff021916908373ffffffffffffffffffffffffffffffffffffffff1602179055507fa0aa61ae85a95577b5775982299a5bfc418ef90f41d6bb03a7f2d5a6f7738eaf816040516107e59190612760565b60405180910390a150565b600d81600381106107fd57fe5b016000915090505481565b603281565b3373ffffffffffffffffffffffffffffffffffffffff166003600083815260200190815260200160002060010160009054906101000a900473ffffffffffffffffffffffffffffffffffffffff1673ffffffffffffffffffffffffffffffffffffffff16146108b1576040517f08c379a00000000000000000000000000000000000000000000000000000000081526004016108a8906128e0565b60405180910390fd5b6003600082815260200190815260200160002060080160009054906101000a900460ff16610914576040517f08c379a000000000000000000000000000000000000000000000000000000000815260040161090b90612920565b60405180910390fd5b60005b600360ff168160ff1610156109ae57828160ff166003811061093557fe5b6020020135600360008481526020019081526020016000206005018260ff166003811061095e57fe5b015410156109a1576040517f08c379a000000000000000000000000000000000000000000000000000000000815260040161099890612960565b60405180910390fd5b8080600101915050610917565b506000600b60009054906101000a900473ffffffffffffffffffffffffffffffffffffffff1673ffffffffffffffffffffffffffffffffffffffff1663eacd7afc846003600086815260200190815260200160002060010160009054906101000a900473ffffffffffffffffffffffffffffffffffffffff166040518363ffffffff1660e01b8152600401610a44929190612821565b602060405180830381600087803b158015610a5e57600080fd5b505af1158015610a72573d6000803e3d6000fd5b505050506040513d601f19601f82011682018060405250810190610a969190612299565b905080610ad8576040517f08c379a0000000000000000000000000000000000000000000000000000000008152600401610acf906128c0565b60405180910390fd5b6000805b600360ff168160ff161015610bc4576000858260ff1660038110610afc57fe5b60200201351115610b8057848160ff1660038110610b1657fe5b6020020135600d8260ff1660038110610b2b57fe5b0160008282540192505081905550848160ff1660038110610b4857fe5b6020020135600360008681526020019081526020016000206005018260ff1660038110610b7157fe5b01600082825403925050819055505b6000600360008681526020019081526020016000206005018260ff1660038110610ba657fe5b01541415610bb75781806001019250505b8080600101915050610adc565b507f3fe87a796bb63522ae7b9008d51ff617ee24dbde9a0fac8ed85e5a29e781755633856003600087815260200190815260200160002060050186604051610c0f949392919061277b565b60405180910390a160038160ff161415610d6c5760016003600085815260200190815260200160002060080160016101000a81548160ff021916908315150217905550604051806060016040528084815260200160001515815260200160036000868152602001908152602001600020600201600380602002604051908101604052809291908260038015610cb9576020028201915b815481526020019060010190808311610ca5575b5050505050815250600560008581526020019081526020016000206000820151816000015560208201518160010160006101000a81548160ff021916908315150217905550604082015181600201906003610d15929190611f8a565b509050507fc3fd3a068edf38e1a0ccd0f7e52aea669eb60f90dbb25026798e25db56f3a6f333856003600087815260200190815260200160002060020186604051610d63949392919061277b565b60405180910390a15b50505050565b600b60009054906101000a900473ffffffffffffffffffffffffffffffffffffffff1681565b600954811115610ddd576040517f08c379a0000000000000000000000000000000000000000000000000000000008152600401610dd490612980565b60405180910390fd5b3373ffffffffffffffffffffffffffffffffffffffff166003600083815260200190815260200160002060010160009054906101000a900473ffffffffffffffffffffffffffffffffffffffff1673ffffffffffffffffffffffffffffffffffffffff1614610e81576040517f08c379a0000000000000000000000000000000000000000000000000000000008152600401610e78906128e0565b60405180910390fd5b6005600082815260200190815260200160002060010160009054906101000a900460ff1615610ee5576040517f08c379a0000000000000000000000000000000000000000000000000000000008152600401610edc90612940565b60405180910390fd5b6000600b60009054906101000a900473ffffffffffffffffffffffffffffffffffffffff1673ffffffffffffffffffffffffffffffffffffffff166380001288846003600086815260200190815260200160002060010160009054906101000a900473ffffffffffffffffffffffffffffffffffffffff166040518363ffffffff1660e01b8152600401610f7a929190612821565b602060405180830381600087803b158015610f9457600080fd5b505af1158015610fa8573d6000803e3d6000fd5b505050506040513d601f19601f82011682018060405250810190610fcc9190612299565b90508061100e576040517f08c379a0000000000000000000000000000000000000000000000000000000008152600401611005906128a0565b60405180910390fd5b6000805b600360ff1681101561111057600085826003811061102c57fe5b6020020135146111035784816003811061104257fe5b6020020135600d826003811061105457fe5b016000828254039250508190555084816003811061106e57fe5b60200201356010826003811061108057fe5b016000828254039250508190555084816003811061109a57fe5b60200201356005600086815260200190815260200160002060020182600381106110c057fe5b016000828254039250508190555060006005600086815260200190815260200160002060020182600381106110f157fe5b015414156111025781806001019250505b5b8080600101915050611012565b507ffe337a99fc07b4422a06a40fb4728125523f3c0977d012d21e3eb9f89edfd3603385600560008781526020019081526020016000206002018660405161115b949392919061277b565b60405180910390a160038114156111ee5760016005600085815260200190815260200160002060010160006101000a81548160ff0219169083151502179055507f57d01a01ec1287fb00888c92856cb0f45352809b7a5350fdd677ce76f7826299338560056000878152602001908152602001600020600201866040516111e5949392919061277b565b60405180910390a15b50505050565b3373ffffffffffffffffffffffffffffffffffffffff166003600083815260200190815260200160002060010160009054906101000a900473ffffffffffffffffffffffffffffffffffffffff1673ffffffffffffffffffffffffffffffffffffffff161461126257600080fd5b60016003600083815260200190815260200160002060010160146101000a81548160ff0219169083151502179055507f24e5bfa739656f6dd56210dbd8ccbfdabcae46f85752164562c69dffd61a320b33826040516112c29291906127f8565b60405180910390a16112d381611a4c565b15611319576112e181611b5a565b7f7d4061e68fab364906497bb959d95ad3f052a3978fed6ce9942a2b8f737aae548160405161131091906129bc565b60405180910390a15b50565b600a546008805490501015611366576040517f08c379a000000000000000000000000000000000000000000000000000000000815260040161135d90612900565b60405180910390fd5b6113a6816003806020026040519081016040528092919082600360200280828437600081840152601f19601f820116905080830192505050505050611e1f565b7f6825b4653b0626e0268f9c124dce0ea5cc6f826ccb2cf314459bd1c62cf011f733826009546040516113db939291906127c1565b60405180910390a150565b6000600d8260ff16600381106113f857fe5b01549050919050565b600c60009054906101000a900473ffffffffffffffffffffffffffffffffffffffff1681565b60036020528060005260406000206000915090508060000154908060010160009054906101000a900473ffffffffffffffffffffffffffffffffffffffff16908060010160149054906101000a900460ff16908060080160009054906101000a900460ff16908060080160019054906101000a900460ff16905085565b600c60009054906101000a900473ffffffffffffffffffffffffffffffffffffffff1673ffffffffffffffffffffffffffffffffffffffff163373ffffffffffffffffffffffffffffffffffffffff16146114fe57600080fd5b80600660008273ffffffffffffffffffffffffffffffffffffffff1673ffffffffffffffffffffffffffffffffffffffff16815260200190815260200160002060009054906101000a900460ff1661155557600080fd5b6000600660008473ffffffffffffffffffffffffffffffffffffffff1673ffffffffffffffffffffffffffffffffffffffff16815260200190815260200160002060006101000a81548160ff02191690831515021790555060005b6001600880549050038110156116d2578273ffffffffffffffffffffffffffffffffffffffff16600882815481106115e457fe5b9060005260206000200160009054906101000a900473ffffffffffffffffffffffffffffffffffffffff1673ffffffffffffffffffffffffffffffffffffffff1614156116c55760086001600880549050038154811061164057fe5b9060005260206000200160009054906101000a900473ffffffffffffffffffffffffffffffffffffffff166008828154811061167857fe5b9060005260206000200160006101000a81548173ffffffffffffffffffffffffffffffffffffffff021916908373ffffffffffffffffffffffffffffffffffffffff1602179055506116d2565b80806001019150506115b0565b50600880549050600a5411156116f657600a60008154809291906001900391905055505b7f95cd0920c0aa5e5da987ebe563a4f26fc5143a4c65e89cc8b1b3a23e2d7fa5ff826040516117259190612760565b60405180910390a15050565b611739611fca565b600360008381526020019081526020016000206040518060e0016040529081600082015481526020016001820160009054906101000a900473ffffffffffffffffffffffffffffffffffffffff1673ffffffffffffffffffffffffffffffffffffffff1673ffffffffffffffffffffffffffffffffffffffff1681526020016001820160149054906101000a900460ff161515151581526020016002820160038060200260405190810160405280929190826003801561180e576020028201915b8154815260200190600101908083116117fa575b5050505050815260200160058201600380602002604051908101604052809291908260038015611853576020028201915b81548152602001906001019080831161183f575b505050505081526020016008820160009054906101000a900460ff161515151581526020016008820160019054906101000a900460ff1615151515815250509050919050565b601081600381106118a657fe5b016000915090505481565b60006003600083815260200190815260200160002060080160009054906101000a900460ff169050919050565b600c60009054906101000a900473ffffffffffffffffffffffffffffffffffffffff1673ffffffffffffffffffffffffffffffffffffffff163373ffffffffffffffffffffffffffffffffffffffff161461193857600080fd5b60088054905081603282111580156119505750818111155b801561195d575060008114155b801561196a575060008214155b61197357600080fd5b82600a819055507f3eeb9a927605685a0c44838616e4c196655b47d4019656c814bbf5743d1e25cc33600a546040516119ad9291906127f8565b60405180910390a1505050565b60095481565b600060108260ff16600381106119d257fe5b01549050919050565b600881815481106119e857fe5b906000526020600020016000915054906101000a900473ffffffffffffffffffffffffffffffffffffffff1681565b600a5481565b60046020528160005260406000206020528060005260406000206000915091509054906101000a900460ff1681565b6000806000905060005b600880549050811015611b52576004600060088381548110611a7457fe5b9060005260206000200160009054906101000a900473ffffffffffffffffffffffffffffffffffffffff1673ffffffffffffffffffffffffffffffffffffffff1673ffffffffffffffffffffffffffffffffffffffff168152602001908152602001600020600085815260200190815260200160002060009054906101000a900460ff1615611b04576001820191505b600a5482148015611b3557506003600085815260200190815260200160002060010160149054906101000a900460ff165b15611b4557600192505050611b55565b8080600101915050611a56565b50505b919050565b611b6261202f565b600b60009054906101000a900473ffffffffffffffffffffffffffffffffffffffff1673ffffffffffffffffffffffffffffffffffffffff1663233fc9a26040518163ffffffff1660e01b815260040160606040518083038186803b158015611bca57600080fd5b505afa158015611bde573d6000803e3d6000fd5b505050506040513d601f19601f82011682018060405250810190611c029190612270565b905060005b600360ff168160ff161015611cb057818160ff1660038110611c2557fe5b6020020151600360008581526020019081526020016000206002018260ff1660038110611c4e57fe5b015460108360ff1660038110611c6057fe5b01540110611ca3576040517f08c379a0000000000000000000000000000000000000000000000000000000008152600401611c9a90612880565b60405180910390fd5b8080600101915050611c07565b5060016003600084815260200190815260200160002060080160006101000a81548160ff0219169083151502179055506003600083815260200190815260200160002060020160036000848152602001908152602001600020600501906003611d1a929190612051565b5060005b600360ff168160ff161015611d7e57600360008481526020019081526020016000206002018160ff1660038110611d5157fe5b015460108260ff1660038110611d6357fe5b01600082825401925050819055508080600101915050611d1e565b50600760006003600085815260200190815260200160002060010160009054906101000a900473ffffffffffffffffffffffffffffffffffffffff1673ffffffffffffffffffffffffffffffffffffffff1673ffffffffffffffffffffffffffffffffffffffff1681526020019081526020016000208290806001815401808255809150506001900390600052602060002001600090919091909150555050565b611e2761202f565b6009600081548092919060010191905055506040518060e0016040528060095481526020013373ffffffffffffffffffffffffffffffffffffffff168152602001600015158152602001838152602001828152602001600015158152602001600015158152506003600060095481526020019081526020016000206000820151816000015560208201518160010160006101000a81548173ffffffffffffffffffffffffffffffffffffffff021916908373ffffffffffffffffffffffffffffffffffffffff16021790555060408201518160010160146101000a81548160ff021916908315150217905550606082015181600201906003611f2a929190611f8a565b50608082015181600501906003611f42929190611f8a565b5060a08201518160080160006101000a81548160ff02191690831515021790555060c08201518160080160016101000a81548160ff0219169083151502179055509050505050565b8260038101928215611fb9579160200282015b82811115611fb8578251825591602001919060010190611f9d565b5b509050611fc6919061208e565b5090565b6040518060e0016040528060008152602001600073ffffffffffffffffffffffffffffffffffffffff16815260200160001515815260200161200a61202f565b815260200161201761202f565b81526020016000151581526020016000151581525090565b6040518060600160405280600390602082028036833780820191505090505090565b826003810192821561207d579182015b8281111561207c578254825591600101919060010190612061565b5b50905061208a919061208e565b5090565b5b808211156120a757600081600090555060010161208f565b5090565b6000813590506120ba81612be6565b92915050565b6000819050826020600302820111156120d857600080fd5b92915050565b600082601f8301126120ef57600080fd5b60036121026120fd82612a57565b612a2a565b9150818385602084028201111561211857600080fd5b60005b83811015612148578161212e888261217c565b84526020840193506020830192505060018101905061211b565b5050505092915050565b60008151905061216181612bfd565b92915050565b60008135905061217681612c14565b92915050565b60008151905061218b81612c14565b92915050565b6000813590506121a081612c2b565b92915050565b6000602082840312156121b857600080fd5b60006121c6848285016120ab565b91505092915050565b600080604083850312156121e257600080fd5b60006121f0858286016120ab565b925050602061220185828601612167565b9150509250929050565b60006060828403121561221d57600080fd5b600061222b848285016120c0565b91505092915050565b6000806080838503121561224757600080fd5b6000612255858286016120c0565b925050606061226685828601612167565b9150509250929050565b60006060828403121561228257600080fd5b6000612290848285016120de565b91505092915050565b6000602082840312156122ab57600080fd5b60006122b984828501612152565b91505092915050565b6000602082840312156122d457600080fd5b60006122e284828501612167565b91505092915050565b6000602082840312156122fd57600080fd5b600061230b84828501612191565b91505092915050565b60006123208383612742565b60208301905092915050565b61233581612b43565b82525050565b61234481612aee565b82525050565b61235381612aee565b82525050565b61236560608383612b9d565b5050565b61237281612a8d565b61237c8184612abd565b925061238782612a79565b8060005b838110156123b857815161239f8782612314565b96506123aa83612aa3565b92505060018101905061238b565b505050505050565b6123c981612a98565b6123d38184612ac8565b92506123de82612a83565b8060005b83811015612416576123f382612bc6565b6123fd8782612314565b965061240883612ab0565b9250506001810190506123e2565b505050505050565b61242781612b00565b82525050565b61243681612b00565b82525050565b61244581612b55565b82525050565b6000612458602083612ad3565b91507f43616e206e6f7420617070726f76652074686174206d75636820616d6f756e746000830152602082019050919050565b6000612498601b83612ad3565b91507f4c6f616e205061796d656e74206e6f742073756363657366756c6c00000000006000830152602082019050919050565b60006124d8601c83612ad3565b91507f4c6f616e205769746864726177206e6f742073756363657366756c6c000000006000830152602082019050919050565b6000612518601183612ad3565b91507f636f6d70616e79206e6f742d65786973740000000000000000000000000000006000830152602082019050919050565b6000612558601483612ad3565b91507f696e73756666696369656e74207369676e6565730000000000000000000000006000830152602082019050919050565b6000612598601583612ad3565b91507f6e6f7420617070726f76656420666f72206c6f616e00000000000000000000006000830152602082019050919050565b60006125d8600e83612ad3565b91507f616c7265616479207265706169640000000000000000000000000000000000006000830152602082019050919050565b6000612618602883612ad3565b91507f616d6f756e7420726571756573746564206578636565647320616d6f756e742060008301527f617070726f7665640000000000000000000000000000000000000000000000006020830152604082019050919050565b600061267e600f83612ad3565b91507f696e76616c6964206c6f616e20696400000000000000000000000000000000006000830152602082019050919050565b610160820160008201516126c86000850182612742565b5060208201516126db602085018261233b565b5060408201516126ee604085018261241e565b5060608201516127016060850182612369565b50608082015161271460c0850182612369565b5060a082015161272861012085018261241e565b5060c082015161273c61014085018261241e565b50505050565b61274b81612b2c565b82525050565b61275a81612b2c565b82525050565b6000602082019050612775600083018461234a565b92915050565b600061010082019050612791600083018761232c565b61279e6020830186612359565b6127ab60808301856123c0565b6127b860e0830184612751565b95945050505050565b600060a0820190506127d6600083018661232c565b6127e36020830185612359565b6127f06080830184612751565b949350505050565b600060408201905061280d600083018561232c565b61281a6020830184612751565b9392505050565b60006080820190506128366000830185612359565b612843606083018461234a565b9392505050565b600060208201905061285f600083018461242d565b92915050565b600060208201905061287a600083018461243c565b92915050565b600060208201905081810360008301526128998161244b565b9050919050565b600060208201905081810360008301526128b98161248b565b9050919050565b600060208201905081810360008301526128d9816124cb565b9050919050565b600060208201905081810360008301526128f98161250b565b9050919050565b600060208201905081810360008301526129198161254b565b9050919050565b600060208201905081810360008301526129398161258b565b9050919050565b60006020820190508181036000830152612959816125cb565b9050919050565b600060208201905081810360008301526129798161260b565b9050919050565b6000602082019050818103600083015261299981612671565b9050919050565b6000610160820190506129b660008301846126b1565b92915050565b60006020820190506129d16000830184612751565b92915050565b600060a0820190506129ec6000830188612751565b6129f9602083018761234a565b612a06604083018661242d565b612a13606083018561242d565b612a20608083018461242d565b9695505050505050565b6000604051905081810181811067ffffffffffffffff82111715612a4d57600080fd5b8060405250919050565b600067ffffffffffffffff821115612a6e57600080fd5b602082029050919050565b6000819050919050565b6000819050919050565b600060039050919050565b600060039050919050565b6000602082019050919050565b6000600182019050919050565b600081905092915050565b600081905092915050565b600082825260208201905092915050565b6000819050919050565b6000612af982612b0c565b9050919050565b60008115159050919050565b600073ffffffffffffffffffffffffffffffffffffffff82169050919050565b6000819050919050565b600060ff82169050919050565b6000612b4e82612b79565b9050919050565b6000612b6082612b67565b9050919050565b6000612b7282612b0c565b9050919050565b6000612b8482612b8b565b9050919050565b6000612b9682612b0c565b9050919050565b82818337600083830152505050565b6000612bbf612bba83612bd9565b612ae4565b9050919050565b6000612bd28254612bac565b9050919050565b60008160001c9050919050565b612bef81612aee565b8114612bfa57600080fd5b50565b612c0681612b00565b8114612c1157600080fd5b50565b612c1d81612b2c565b8114612c2857600080fd5b50565b612c3481612b36565b8114612c3f57600080fd5b5056fea26469706673582212200a8947078682745f144b472512d4ee79c1d0985e32c84151f18e538cfa86820d64736f6c634300060c0033",
  "immutableReferences": {},
  "source": "// SPDX-License-Identifier: UNLICENSED\r\npragma solidity ^0.6.0;\r\npragma experimental ABIEncoderV2;\r\n\r\nimport '../Interfaces/Erc20Interface.sol';\r\nimport '../Interfaces/RoyaleInterface.sol';\r\n\r\n\r\ncontract rLoan {\r\n    uint8 constant N_COINS = 3;\r\n    \r\n    Erc20[N_COINS] tokens;\r\n\r\n    uint constant public MAX_SIGNEE_COUNT = 50;\r\n    \r\n    mapping(uint256 => Transaction) public transactions;\r\n    mapping(address => mapping (uint256 => bool)) public confirmations;\r\n    mapping(uint256 => Repayment) gamingCompanyRepayment;\r\n    mapping(address => bool) public isSignee;\r\n  \r\n    mapping(address => uint[]) takenLoan;\r\n    address[] public signees;\r\n    uint256 public transactionCount = 0;\r\n   \r\n    uint256 public required;\r\n\r\n    RoyaleInterface public royale;\r\n\r\n    address public ownerAddress;\r\n\r\n    uint256[N_COINS] public totalLoanTaken;\r\n    uint256[N_COINS] public totalApprovedLoan;\r\n    \r\n    struct Transaction {\r\n        uint256 transactionId;\r\n        address iGamingCompany;\r\n        bool isGamingCompanySigned;\r\n        uint256[N_COINS] tokenAmounts;\r\n        uint256[N_COINS] remAmt;\r\n        bool approved;\r\n        bool executed;\r\n    }\r\n\r\n    struct Repayment {\r\n        uint256 transactionID;\r\n        bool isRepaymentDone;\r\n        uint256[N_COINS] remainingTokenAmounts;\r\n    }\r\n\r\n\r\n    /* Events */\r\n\r\n    event loanRequested(\r\n        address by,\r\n        uint[N_COINS] amounts,\r\n        uint loanID\r\n    );\r\n\r\n    event signed(\r\n        address signee,\r\n        uint loanID\r\n    );\r\n\r\n    event approved(\r\n        uint loanID\r\n    );\r\n\r\n    event addedRequiredSignee(\r\n        address adder,\r\n        uint numberOfSignees\r\n    );\r\n\r\n    event signeeAdded(\r\n        address signee\r\n    );\r\n\r\n    event signeeRemoved(\r\n        address signee\r\n    );\r\n\r\n    event loanWithdrawn(\r\n        address by,\r\n        uint[N_COINS] requestedAmount,\r\n        uint[N_COINS] remainingAmount,\r\n        uint loanID\r\n    );\r\n\r\n    event loanFulfilled(\r\n        address by,\r\n        uint[N_COINS] requestedAmount,\r\n        uint[N_COINS] remainingAmount,\r\n        uint loanID\r\n    );\r\n\r\n    event loanRepayed(\r\n        address by,\r\n        uint[N_COINS] repayedAmount,\r\n        uint[N_COINS] amountRemaining,\r\n        uint loanID\r\n    );\r\n\r\n    event wholeLoanRepayed(\r\n        address by,\r\n        uint[N_COINS] repayedAmount,\r\n        uint[N_COINS] amountRemaining,\r\n        uint loanID\r\n    );\r\n\r\n    /* Modifiers */\r\n\r\n    modifier onlyOwner {\r\n        require(msg.sender == ownerAddress);\r\n        _;\r\n    }\r\n\r\n    modifier signeeExists(address signee) {\r\n        require(isSignee[signee]);\r\n        _;\r\n    }\r\n\r\n    modifier transactionExists(uint _loanID) {\r\n        require(_loanID > 0 && _loanID <= transactionCount);\r\n        _;\r\n    }\r\n\r\n    modifier notConfirmed(address addr,uint _loanID) {\r\n        require(!confirmations[addr][_loanID]);\r\n        _;\r\n    }\r\n\r\n    modifier validRequirement(uint signeeCount, uint _required) {\r\n        require(signeeCount <= MAX_SIGNEE_COUNT\r\n            && _required <= signeeCount\r\n            && _required != 0\r\n            && signeeCount != 0);\r\n        _;\r\n    }\r\n\r\n\r\n    constructor(address[N_COINS] memory _tokens , address _royale) public {\r\n        ownerAddress = msg.sender;\r\n\r\n        // Set Tokens supported by Pool\r\n        for(uint8 i=0; i<N_COINS; i++) {\r\n            tokens[i] = Erc20(_tokens[i]);\r\n            royale = RoyaleInterface(_royale);\r\n        }\r\n    }\r\n\r\n    /* Internal Functions */\r\n\r\n    function _addTransaction(\r\n       uint256[N_COINS] memory amounts\r\n    ) internal {\r\n        uint256[N_COINS] memory zero;\r\n\r\n        transactionCount++;\r\n        transactions[transactionCount] = Transaction({\r\n            transactionId: transactionCount,\r\n            iGamingCompany: msg.sender,\r\n            tokenAmounts: amounts,\r\n            remAmt: zero,\r\n            isGamingCompanySigned: false,\r\n            approved: false,\r\n            executed: false\r\n        });\r\n        \r\n    }\r\n\r\n    function _approveLoan(uint _loanID) internal {\r\n        uint256[N_COINS] memory am=royale.getTotalPoolBalance();\r\n        for(uint8 i=0;i<N_COINS;i++) {\r\n            require(totalApprovedLoan[i]+transactions[_loanID].tokenAmounts[i]<am[i],\"Can not approve that much amount\");\r\n        }\r\n\r\n        transactions[_loanID].approved = true;\r\n        transactions[_loanID].remAmt = transactions[_loanID].tokenAmounts;\r\n\r\n        for(uint8 i=0;i<N_COINS;i++){\r\n            totalApprovedLoan[i] +=transactions[_loanID].tokenAmounts[i];\r\n        }\r\n        takenLoan[transactions[_loanID].iGamingCompany].push(_loanID);\r\n    }\r\n\r\n    function _isConfirmed(\r\n        uint _loanID\r\n    ) internal view returns (bool) {\r\n        uint count = 0;\r\n        for (uint i=0; i<signees.length; i++) {\r\n            if (confirmations[signees[i]][_loanID])\r\n                count += 1;\r\n            if (count == required && transactions[_loanID].isGamingCompanySigned)\r\n                return true;\r\n        }\r\n    }\r\n\r\n  \r\n    /* USER FUNCTIONS (exposed to frontend) */\r\n\r\n    // Gaming platforms withdraw using this\r\n    function requestLoan(\r\n        uint256[N_COINS] calldata amounts\r\n    ) external  {\r\n       require(signees.length >= required, \"insufficient signees\");\r\n       _addTransaction(amounts);\r\n\r\n       emit loanRequested(msg.sender, amounts, transactionCount);\r\n    }\r\n    \r\n    \r\n    // Gaming Platforms signs using this\r\n    function signTransaction(uint _loanID) public {\r\n        require(transactions[_loanID].iGamingCompany == msg.sender);\r\n        \r\n        transactions[_loanID].isGamingCompanySigned = true;\r\n\r\n        emit signed(msg.sender, _loanID);\r\n\r\n        if(_isConfirmed(_loanID)) {\r\n           _approveLoan(_loanID);\r\n           emit approved(_loanID);\r\n        }\r\n    }\r\n    \r\n    // Signee signs using this\r\n    function confirmLoan(uint _loanID) public\r\n        signeeExists(msg.sender)\r\n        transactionExists(_loanID)\r\n        notConfirmed( msg.sender,_loanID) \r\n    {\r\n        confirmations[msg.sender][_loanID] = true;\r\n        \r\n        emit signed(msg.sender, _loanID);\r\n\r\n        if(_isConfirmed(_loanID)) {\r\n           _approveLoan(_loanID);\r\n           emit approved(_loanID);\r\n        }\r\n    }\r\n\r\n    function getTransactionDetail(\r\n        uint _loanID\r\n    ) public view returns(Transaction memory){\r\n        return transactions[_loanID];\r\n    }\r\n\r\n    function checkLoanApproved(uint _loanID) external view returns(bool) {\r\n        return transactions[_loanID].approved;\r\n    }\r\n\r\n    /* Admin Function */\r\n    \r\n    function setRequiredSignee(\r\n        uint _required\r\n    ) public onlyOwner validRequirement(signees.length, _required) {\r\n        required = _required;\r\n\r\n        emit addedRequiredSignee(msg.sender, required);\r\n    }\r\n\r\n    function addSignee(address signee) public onlyOwner {\r\n        isSignee[signee] = true;\r\n        signees.push(signee);\r\n\r\n        emit signeeAdded(signee);\r\n    }\r\n    \r\n    function removeSignee(address signee) public onlyOwner signeeExists(signee) {\r\n        isSignee[signee] = false;\r\n        for (uint i=0; i<signees.length - 1; i++) {\r\n            if (signees[i] == signee) {\r\n                signees[i] = signees[signees.length - 1];\r\n                break;\r\n            }\r\n        }\r\n        \r\n        if (required > signees.length) {\r\n            required--;\r\n        }\r\n\r\n        emit signeeRemoved(signee);\r\n    } \r\n\r\n    function withdrawLoan( \r\n        uint256[N_COINS] calldata amounts,\r\n        uint _loanID\r\n    ) external {\r\n\r\n        require(transactions[_loanID].iGamingCompany == msg.sender, \"company not-exist\");\r\n        require(transactions[_loanID].approved, \"not approved for loan\");\r\n        \r\n        for(uint8 i=0; i<N_COINS; i++) {\r\n            require(\r\n                transactions[_loanID].remAmt[i] >= amounts[i], \r\n                \"amount requested exceeds amount approved\"\r\n            );\r\n        }\r\n        bool b = royale._loanWithdraw(amounts,transactions[_loanID].iGamingCompany);\r\n        require(b, \"Loan Withdraw not succesfull\");\r\n\r\n        uint8 check = 0;\r\n        for(uint8 i=0; i<N_COINS; i++) {\r\n            if(amounts[i] > 0) {\r\n                totalLoanTaken[i] += amounts[i];\r\n                transactions[_loanID].remAmt[i] -= amounts[i];\r\n            }\r\n            if(transactions[_loanID].remAmt[i] == 0) {\r\n                check++;\r\n            }\r\n        }\r\n\r\n        emit loanWithdrawn(msg.sender, amounts, transactions[_loanID].remAmt, _loanID);\r\n\r\n        if(check == 3) {\r\n            // Loan fulfilled, company used all its loan\r\n            transactions[_loanID].executed = true;\r\n            gamingCompanyRepayment[_loanID] = Repayment({\r\n                  transactionID: _loanID,\r\n                  isRepaymentDone: false,\r\n                  remainingTokenAmounts: transactions[_loanID].tokenAmounts\r\n            });\r\n\r\n            emit loanFulfilled(msg.sender, amounts, transactions[_loanID].tokenAmounts, _loanID);\r\n        }\r\n    } \r\n    \r\n    \r\n    function repayLoan(uint256[N_COINS] calldata _amounts, uint _loanId) external {\r\n        require(_loanId <= transactionCount, \"invalid loan id\");\r\n        require(transactions[_loanId].iGamingCompany == msg.sender, \"company not-exist\");\r\n        require(!gamingCompanyRepayment[_loanId].isRepaymentDone, \"already repaid\");\r\n        \r\n\r\n        bool b = royale._loanRepayment(_amounts,transactions[_loanId].iGamingCompany);\r\n        require(b,\"Loan Payment not succesfull\");\r\n        uint counter=0;\r\n        for(uint i=0;i<N_COINS;i++) {\r\n            if(_amounts[i]!=0) {\r\n                totalLoanTaken[i] -=_amounts[i];\r\n                totalApprovedLoan[i]-=_amounts[i];\r\n                gamingCompanyRepayment[_loanId].remainingTokenAmounts[i] -= _amounts[i];\r\n                if(gamingCompanyRepayment[_loanId].remainingTokenAmounts[i] == 0) {\r\n                    counter++;\r\n                }\r\n            }\r\n        }\r\n\r\n        emit loanRepayed(\r\n            msg.sender,\r\n            _amounts, \r\n            gamingCompanyRepayment[_loanId].remainingTokenAmounts,\r\n            _loanId\r\n        );\r\n\r\n            if(counter==3){\r\n                gamingCompanyRepayment[_loanId].isRepaymentDone=true;\r\n\r\n                emit wholeLoanRepayed(\r\n                    msg.sender,\r\n                    _amounts, \r\n                    gamingCompanyRepayment[_loanId].remainingTokenAmounts,\r\n                    _loanId\r\n                );\r\n            }       \r\n    }\r\n    \r\n   \r\n\r\n   /* functions for UI */\r\n\r\n    function getTotalTakenLoan(uint8 _number)public view returns(uint){\r\n        return totalLoanTaken[_number];\r\n    }\r\n\r\n    function getTotalApprovedLoan(uint8 _number)public view returns(uint){\r\n        return totalApprovedLoan[_number];\r\n    }\r\n}",
  "sourcePath": "C:/Users/MayankVats/Desktop/WORK/blockchain/Royale/rlp/contracts/rLoan.sol",
  "compiler": {
    "name": "solc",
    "version": "0.6.12+commit.27d51765.Emscripten.clang"
  },
  "schemaVersion": "3.3.2",
  "updatedAt": "2020-12-23T10:16:13.837Z",
  "devdoc": {
    "kind": "dev",
    "methods": {},
    "version": 1
  },
  "userdoc": {
    "kind": "user",
    "methods": {},
    "version": 1
  }
}