{
  "contractName": "rLoan",
  "abi": [
    {
      "inputs": [
        {
          "internalType": "address[3]",
          "name": "_tokens",
          "type": "address[3]"
        },
        {
          "internalType": "address",
          "name": "_royale",
          "type": "address"
        }
      ],
      "stateMutability": "nonpayable",
      "type": "constructor"
    },
    {
      "anonymous": false,
      "inputs": [
        {
          "indexed": false,
          "internalType": "address",
          "name": "adder",
          "type": "address"
        },
        {
          "indexed": false,
          "internalType": "uint256",
          "name": "numberOfSignees",
          "type": "uint256"
        }
      ],
      "name": "addedRequiredSignee",
      "type": "event"
    },
    {
      "anonymous": false,
      "inputs": [
        {
          "indexed": false,
          "internalType": "uint256",
          "name": "loanID",
          "type": "uint256"
        }
      ],
      "name": "approved",
      "type": "event"
    },
    {
      "anonymous": false,
      "inputs": [
        {
          "indexed": false,
          "internalType": "address",
          "name": "by",
          "type": "address"
        },
        {
          "indexed": false,
          "internalType": "uint256[3]",
          "name": "requestedAmount",
          "type": "uint256[3]"
        },
        {
          "indexed": false,
          "internalType": "uint256[3]",
          "name": "remainingAmount",
          "type": "uint256[3]"
        },
        {
          "indexed": false,
          "internalType": "uint256",
          "name": "loanID",
          "type": "uint256"
        }
      ],
      "name": "loanFulfilled",
      "type": "event"
    },
    {
      "anonymous": false,
      "inputs": [
        {
          "indexed": false,
          "internalType": "address",
          "name": "by",
          "type": "address"
        },
        {
          "indexed": false,
          "internalType": "uint256[3]",
          "name": "repayedAmount",
          "type": "uint256[3]"
        },
        {
          "indexed": false,
          "internalType": "uint256[3]",
          "name": "amountRemaining",
          "type": "uint256[3]"
        },
        {
          "indexed": false,
          "internalType": "uint256",
          "name": "loanID",
          "type": "uint256"
        }
      ],
      "name": "loanRepayed",
      "type": "event"
    },
    {
      "anonymous": false,
      "inputs": [
        {
          "indexed": false,
          "internalType": "address",
          "name": "by",
          "type": "address"
        },
        {
          "indexed": false,
          "internalType": "uint256[3]",
          "name": "amounts",
          "type": "uint256[3]"
        },
        {
          "indexed": false,
          "internalType": "uint256",
          "name": "loanID",
          "type": "uint256"
        }
      ],
      "name": "loanRequested",
      "type": "event"
    },
    {
      "anonymous": false,
      "inputs": [
        {
          "indexed": false,
          "internalType": "address",
          "name": "by",
          "type": "address"
        },
        {
          "indexed": false,
          "internalType": "uint256[3]",
          "name": "requestedAmount",
          "type": "uint256[3]"
        },
        {
          "indexed": false,
          "internalType": "uint256[3]",
          "name": "remainingAmount",
          "type": "uint256[3]"
        },
        {
          "indexed": false,
          "internalType": "uint256",
          "name": "loanID",
          "type": "uint256"
        }
      ],
      "name": "loanWithdrawn",
      "type": "event"
    },
    {
      "anonymous": false,
      "inputs": [
        {
          "indexed": false,
          "internalType": "address",
          "name": "signee",
          "type": "address"
        },
        {
          "indexed": false,
          "internalType": "uint256",
          "name": "loanID",
          "type": "uint256"
        }
      ],
      "name": "signed",
      "type": "event"
    },
    {
      "anonymous": false,
      "inputs": [
        {
          "indexed": false,
          "internalType": "address",
          "name": "signee",
          "type": "address"
        }
      ],
      "name": "signeeAdded",
      "type": "event"
    },
    {
      "anonymous": false,
      "inputs": [
        {
          "indexed": false,
          "internalType": "address",
          "name": "signee",
          "type": "address"
        }
      ],
      "name": "signeeRemoved",
      "type": "event"
    },
    {
      "anonymous": false,
      "inputs": [
        {
          "indexed": false,
          "internalType": "address",
          "name": "by",
          "type": "address"
        },
        {
          "indexed": false,
          "internalType": "uint256[3]",
          "name": "repayedAmount",
          "type": "uint256[3]"
        },
        {
          "indexed": false,
          "internalType": "uint256[3]",
          "name": "amountRemaining",
          "type": "uint256[3]"
        },
        {
          "indexed": false,
          "internalType": "uint256",
          "name": "loanID",
          "type": "uint256"
        }
      ],
      "name": "wholeLoanRepayed",
      "type": "event"
    },
    {
      "inputs": [],
      "name": "BASE_DECIMAL",
      "outputs": [
        {
          "internalType": "uint256",
          "name": "",
          "type": "uint256"
        }
      ],
      "stateMutability": "view",
      "type": "function"
    },
    {
      "inputs": [],
      "name": "MAX_SIGNEE_COUNT",
      "outputs": [
        {
          "internalType": "uint256",
          "name": "",
          "type": "uint256"
        }
      ],
      "stateMutability": "view",
      "type": "function"
    },
    {
      "inputs": [
        {
          "internalType": "address",
          "name": "",
          "type": "address"
        },
        {
          "internalType": "uint256",
          "name": "",
          "type": "uint256"
        }
      ],
      "name": "confirmations",
      "outputs": [
        {
          "internalType": "bool",
          "name": "",
          "type": "bool"
        }
      ],
      "stateMutability": "view",
      "type": "function"
    },
    {
      "inputs": [
        {
          "internalType": "uint256",
          "name": "",
          "type": "uint256"
        }
      ],
      "name": "gamingCompanyRepayment",
      "outputs": [
        {
          "internalType": "uint256",
          "name": "transactionID",
          "type": "uint256"
        },
        {
          "internalType": "bool",
          "name": "isRepaymentDone",
          "type": "bool"
        }
      ],
      "stateMutability": "view",
      "type": "function"
    },
    {
      "inputs": [
        {
          "internalType": "address",
          "name": "",
          "type": "address"
        }
      ],
      "name": "isSignee",
      "outputs": [
        {
          "internalType": "bool",
          "name": "",
          "type": "bool"
        }
      ],
      "stateMutability": "view",
      "type": "function"
    },
    {
      "inputs": [],
      "name": "ownerAddress",
      "outputs": [
        {
          "internalType": "address",
          "name": "",
          "type": "address"
        }
      ],
      "stateMutability": "view",
      "type": "function"
    },
    {
      "inputs": [],
      "name": "required",
      "outputs": [
        {
          "internalType": "uint256",
          "name": "",
          "type": "uint256"
        }
      ],
      "stateMutability": "view",
      "type": "function"
    },
    {
      "inputs": [],
      "name": "royale",
      "outputs": [
        {
          "internalType": "contract RoyaleInterface",
          "name": "",
          "type": "address"
        }
      ],
      "stateMutability": "view",
      "type": "function"
    },
    {
      "inputs": [
        {
          "internalType": "uint256",
          "name": "",
          "type": "uint256"
        }
      ],
      "name": "signees",
      "outputs": [
        {
          "internalType": "address",
          "name": "",
          "type": "address"
        }
      ],
      "stateMutability": "view",
      "type": "function"
    },
    {
      "inputs": [
        {
          "internalType": "address",
          "name": "",
          "type": "address"
        },
        {
          "internalType": "uint256",
          "name": "",
          "type": "uint256"
        }
      ],
      "name": "takenLoan",
      "outputs": [
        {
          "internalType": "uint256",
          "name": "",
          "type": "uint256"
        }
      ],
      "stateMutability": "view",
      "type": "function"
    },
    {
      "inputs": [
        {
          "internalType": "uint256",
          "name": "",
          "type": "uint256"
        }
      ],
      "name": "totalApprovedLoan",
      "outputs": [
        {
          "internalType": "uint256",
          "name": "",
          "type": "uint256"
        }
      ],
      "stateMutability": "view",
      "type": "function"
    },
    {
      "inputs": [
        {
          "internalType": "uint256",
          "name": "",
          "type": "uint256"
        }
      ],
      "name": "totalLoanTaken",
      "outputs": [
        {
          "internalType": "uint256",
          "name": "",
          "type": "uint256"
        }
      ],
      "stateMutability": "view",
      "type": "function"
    },
    {
      "inputs": [],
      "name": "transactionCount",
      "outputs": [
        {
          "internalType": "uint256",
          "name": "",
          "type": "uint256"
        }
      ],
      "stateMutability": "view",
      "type": "function"
    },
    {
      "inputs": [
        {
          "internalType": "uint256",
          "name": "",
          "type": "uint256"
        }
      ],
      "name": "transactions",
      "outputs": [
        {
          "internalType": "uint256",
          "name": "transactionId",
          "type": "uint256"
        },
        {
          "internalType": "address",
          "name": "iGamingCompany",
          "type": "address"
        },
        {
          "internalType": "bool",
          "name": "isGamingCompanySigned",
          "type": "bool"
        },
        {
          "internalType": "bool",
          "name": "approved",
          "type": "bool"
        },
        {
          "internalType": "bool",
          "name": "executed",
          "type": "bool"
        }
      ],
      "stateMutability": "view",
      "type": "function"
    },
    {
      "inputs": [
        {
          "internalType": "uint256[3]",
          "name": "amounts",
          "type": "uint256[3]"
        }
      ],
      "name": "requestLoan",
      "outputs": [],
      "stateMutability": "nonpayable",
      "type": "function"
    },
    {
      "inputs": [
        {
          "internalType": "uint256",
          "name": "_loanID",
          "type": "uint256"
        }
      ],
      "name": "signTransaction",
      "outputs": [],
      "stateMutability": "nonpayable",
      "type": "function"
    },
    {
      "inputs": [
        {
          "internalType": "uint256",
          "name": "_loanID",
          "type": "uint256"
        }
      ],
      "name": "confirmLoan",
      "outputs": [],
      "stateMutability": "nonpayable",
      "type": "function"
    },
    {
      "inputs": [
        {
          "internalType": "uint256",
          "name": "_loanID",
          "type": "uint256"
        }
      ],
      "name": "getTransactionDetail",
      "outputs": [
        {
          "components": [
            {
              "internalType": "uint256",
              "name": "transactionId",
              "type": "uint256"
            },
            {
              "internalType": "address",
              "name": "iGamingCompany",
              "type": "address"
            },
            {
              "internalType": "bool",
              "name": "isGamingCompanySigned",
              "type": "bool"
            },
            {
              "internalType": "uint256[3]",
              "name": "tokenAmounts",
              "type": "uint256[3]"
            },
            {
              "internalType": "uint256[3]",
              "name": "remAmt",
              "type": "uint256[3]"
            },
            {
              "internalType": "bool",
              "name": "approved",
              "type": "bool"
            },
            {
              "internalType": "bool",
              "name": "executed",
              "type": "bool"
            }
          ],
          "internalType": "struct rLoan.Transaction",
          "name": "",
          "type": "tuple"
        }
      ],
      "stateMutability": "view",
      "type": "function"
    },
    {
      "inputs": [
        {
          "internalType": "uint256",
          "name": "_loanID",
          "type": "uint256"
        }
      ],
      "name": "checkLoanApproved",
      "outputs": [
        {
          "internalType": "bool",
          "name": "",
          "type": "bool"
        }
      ],
      "stateMutability": "view",
      "type": "function"
    },
    {
      "inputs": [
        {
          "internalType": "uint256",
          "name": "_required",
          "type": "uint256"
        }
      ],
      "name": "setRequiredSignee",
      "outputs": [],
      "stateMutability": "nonpayable",
      "type": "function"
    },
    {
      "inputs": [
        {
          "internalType": "address",
          "name": "signee",
          "type": "address"
        }
      ],
      "name": "addSignee",
      "outputs": [],
      "stateMutability": "nonpayable",
      "type": "function"
    },
    {
      "inputs": [
        {
          "internalType": "address",
          "name": "signee",
          "type": "address"
        }
      ],
      "name": "removeSignee",
      "outputs": [],
      "stateMutability": "nonpayable",
      "type": "function"
    },
    {
      "inputs": [],
      "name": "getArrayLength",
      "outputs": [
        {
          "internalType": "uint256",
          "name": "",
          "type": "uint256"
        }
      ],
      "stateMutability": "view",
      "type": "function"
    },
    {
      "inputs": [
        {
          "internalType": "uint256[3]",
          "name": "amounts",
          "type": "uint256[3]"
        },
        {
          "internalType": "uint256",
          "name": "_loanID",
          "type": "uint256"
        }
      ],
      "name": "withdrawLoan",
      "outputs": [],
      "stateMutability": "nonpayable",
      "type": "function"
    },
    {
      "inputs": [
        {
          "internalType": "uint256[3]",
          "name": "_amounts",
          "type": "uint256[3]"
        },
        {
          "internalType": "uint256",
          "name": "_loanId",
          "type": "uint256"
        }
      ],
      "name": "repayLoan",
      "outputs": [],
      "stateMutability": "nonpayable",
      "type": "function"
    },
    {
      "inputs": [
        {
          "internalType": "uint8",
          "name": "_number",
          "type": "uint8"
        }
      ],
      "name": "getTotalTakenLoan",
      "outputs": [
        {
          "internalType": "uint256",
          "name": "",
          "type": "uint256"
        }
      ],
      "stateMutability": "view",
      "type": "function"
    },
    {
      "inputs": [
        {
          "internalType": "uint8",
          "name": "_number",
          "type": "uint8"
        }
      ],
      "name": "getTotalApprovedLoan",
      "outputs": [
        {
          "internalType": "uint256",
          "name": "",
          "type": "uint256"
        }
      ],
      "stateMutability": "view",
      "type": "function"
    }
  ],
  "bytecode": "0x608060405260006009553480156200001657600080fd5b50604051620034ba380380620034ba83398181016040528101906200003c91906200029d565b33600c60006101000a81548173ffffffffffffffffffffffffffffffffffffffff021916908373ffffffffffffffffffffffffffffffffffffffff1602179055506001600660003373ffffffffffffffffffffffffffffffffffffffff1673ffffffffffffffffffffffffffffffffffffffff16815260200190815260200160002060006101000a81548160ff0219169083151502179055506008339080600181540180825580915050600190039060005260206000200160009091909190916101000a81548173ffffffffffffffffffffffffffffffffffffffff021916908373ffffffffffffffffffffffffffffffffffffffff16021790555060005b600360ff168160ff161015620001ff57828160ff16600381106200015b57fe5b602002015160008260ff16600381106200017157fe5b0160006101000a81548173ffffffffffffffffffffffffffffffffffffffff021916908373ffffffffffffffffffffffffffffffffffffffff16021790555081600b60006101000a81548173ffffffffffffffffffffffffffffffffffffffff021916908373ffffffffffffffffffffffffffffffffffffffff16021790555080806001019150506200013b565b5050506200037d565b600081519050620002198162000363565b92915050565b600082601f8301126200023157600080fd5b60036200024862000242826200030c565b620002de565b915081838560208402820111156200025f57600080fd5b60005b8381101562000293578162000278888262000208565b84526020840193506020830192505060018101905062000262565b5050505092915050565b60008060808385031215620002b157600080fd5b6000620002c1858286016200021f565b9250506060620002d48582860162000208565b9150509250929050565b6000604051905081810181811067ffffffffffffffff821117156200030257600080fd5b8060405250919050565b600067ffffffffffffffff8211156200032457600080fd5b602082029050919050565b60006200033c8262000343565b9050919050565b600073ffffffffffffffffffffffffffffffffffffffff82169050919050565b6200036e816200032f565b81146200037a57600080fd5b50565b61312d806200038d6000396000f3fe608060405234801561001057600080fd5b50600436106101a95760003560e01c80637a325e56116100f9578063ae8df6a611610097578063cbd249f411610071578063cbd249f4146104f7578063d80a93d614610527578063dc8452cd14610557578063f84fd9ef14610575576101a9565b8063ae8df6a61461048d578063b0580ce9146104bd578063b77bf600146104d9576101a9565b80639ace38c2116100d35780639ace38c2146103dd5780639b364162146104115780639ff512fa1461042d578063aa37dca21461045d576101a9565b80637a325e56146103715780638af81478146103a15780638f84aa09146103bf576101a9565b8063277514e011610166578063398d1b9e11610140578063398d1b9e146102ec5780633d591bc21461031d5780635d9ec2101461033957806362a945d114610355576101a9565b8063277514e0146102825780632f0946321461029e5780632fd040d6146102bc576101a9565b80630385b581146101ae57806304971367146101de5780630849cc99146101fa5780630f8cdd881461021857806310266c1c146102345780631880432a14610264575b600080fd5b6101c860048036038101906101c391906124ec565b6105a5565b6040516101d59190612c76565b60405180910390f35b6101f860048036038101906101f39190612608565b6105c5565b005b61020261079a565b60405161020f9190612e48565b60405180910390f35b610232600480360381019061022d91906124ec565b6107a7565b005b61024e60048036038101906102499190612608565b6108f4565b60405161025b9190612e48565b60405180910390f35b61026c61090c565b6040516102799190612e48565b60405180910390f35b61029c6004803603810190610297919061257a565b610911565b005b6102a6610e5b565b6040516102b39190612c91565b60405180910390f35b6102d660048036038101906102d19190612515565b610e81565b6040516102e39190612e48565b60405180910390f35b61030660048036038101906103019190612608565b610eaf565b604051610314929190612eb6565b60405180910390f35b6103376004803603810190610332919061257a565b610ee0565b005b610353600480360381019061034e9190612608565b611415565b005b61036f600480360381019061036a9190612551565b61153d565b005b61038b60048036038101906103869190612631565b611607565b6040516103989190612e48565b60405180910390f35b6103a9611622565b6040516103b69190612e48565b60405180910390f35b6103c761162e565b6040516103d49190612b8c565b60405180910390f35b6103f760048036038101906103f29190612608565b611654565b604051610408959493929190612e63565b60405180910390f35b61042b600480360381019061042691906124ec565b6116d1565b005b61044760048036038101906104429190612608565b61199c565b6040516104549190612e2c565b60405180910390f35b61047760048036038101906104729190612608565b611b04565b6040516104849190612e48565b60405180910390f35b6104a760048036038101906104a29190612608565b611b1c565b6040516104b49190612c76565b60405180910390f35b6104d760048036038101906104d29190612608565b611b49565b005b6104e1611c23565b6040516104ee9190612e48565b60405180910390f35b610511600480360381019061050c9190612631565b611c29565b60405161051e9190612e48565b60405180910390f35b610541600480360381019061053c9190612608565b611c44565b60405161054e9190612b8c565b60405180910390f35b61055f611c80565b60405161056c9190612e48565b60405180910390f35b61058f600480360381019061058a9190612515565b611c86565b60405161059c9190612c76565b60405180910390f35b60066020528060005260406000206000915054906101000a900460ff1681565b33600660008273ffffffffffffffffffffffffffffffffffffffff1673ffffffffffffffffffffffffffffffffffffffff16815260200190815260200160002060009054906101000a900460ff1661061c57600080fd5b8160008111801561062f57506009548111155b61063857600080fd5b3383600460008373ffffffffffffffffffffffffffffffffffffffff1673ffffffffffffffffffffffffffffffffffffffff168152602001908152602001600020600082815260200190815260200160002060009054906101000a900460ff16156106a257600080fd5b6001600460003373ffffffffffffffffffffffffffffffffffffffff1673ffffffffffffffffffffffffffffffffffffffff168152602001908152602001600020600087815260200190815260200160002060006101000a81548160ff0219169083151502179055507f24e5bfa739656f6dd56210dbd8ccbfdabcae46f85752164562c69dffd61a320b338660405161073c929190612c24565b60405180910390a161074d85611cb5565b156107935761075b85611dc3565b7f7d4061e68fab364906497bb959d95ad3f052a3978fed6ce9942a2b8f737aae548560405161078a9190612e48565b60405180910390a15b5050505050565b6000600880549050905090565b33600660008273ffffffffffffffffffffffffffffffffffffffff1673ffffffffffffffffffffffffffffffffffffffff16815260200190815260200160002060009054906101000a900460ff166107fe57600080fd5b6001600660008473ffffffffffffffffffffffffffffffffffffffff1673ffffffffffffffffffffffffffffffffffffffff16815260200190815260200160002060006101000a81548160ff0219169083151502179055506008829080600181540180825580915050600190039060005260206000200160009091909190916101000a81548173ffffffffffffffffffffffffffffffffffffffff021916908373ffffffffffffffffffffffffffffffffffffffff1602179055507fa0aa61ae85a95577b5775982299a5bfc418ef90f41d6bb03a7f2d5a6f7738eaf826040516108e89190612b8c565b60405180910390a15050565b600d816003811061090157fe5b016000915090505481565b603281565b3373ffffffffffffffffffffffffffffffffffffffff166003600083815260200190815260200160002060010160009054906101000a900473ffffffffffffffffffffffffffffffffffffffff1673ffffffffffffffffffffffffffffffffffffffff16146109b5576040517f08c379a00000000000000000000000000000000000000000000000000000000081526004016109ac90612d0c565b60405180910390fd5b6003600082815260200190815260200160002060080160009054906101000a900460ff16610a18576040517f08c379a0000000000000000000000000000000000000000000000000000000008152600401610a0f90612d4c565b60405180910390fd5b610a206122d0565b60005b600360ff168160ff161015610aba57838160ff1660038110610a4157fe5b6020020135600360008581526020019081526020016000206005018260ff1660038110610a6a57fe5b01541015610aad576040517f08c379a0000000000000000000000000000000000000000000000000000000008152600401610aa490612dac565b60405180910390fd5b8080600101915050610a23565b506000600b60009054906101000a900473ffffffffffffffffffffffffffffffffffffffff1673ffffffffffffffffffffffffffffffffffffffff1663eacd7afc856003600087815260200190815260200160002060010160009054906101000a900473ffffffffffffffffffffffffffffffffffffffff166040518363ffffffff1660e01b8152600401610b50929190612c4d565b602060405180830381600087803b158015610b6a57600080fd5b505af1158015610b7e573d6000803e3d6000fd5b505050506040513d601f19601f82011682018060405250810190610ba291906125df565b905080610be4576040517f08c379a0000000000000000000000000000000000000000000000000000000008152600401610bdb90612cec565b60405180910390fd5b6000805b600360ff168160ff161015610d4f576000868260ff1660038110610c0857fe5b60200201351115610d0b57858160ff1660038110610c2257fe5b6020020135600d8260ff1660038110610c3757fe5b0160008282540192505081905550610c87600360008781526020019081526020016000206005018260ff1660038110610c6c57fe5b0154878360ff1660038110610c7d57fe5b6020020135612088565b600360008781526020019081526020016000206005018260ff1660038110610cab57fe5b0181905550610cf2600560008781526020019081526020016000206002018260ff1660038110610cd757fe5b0154878360ff1660038110610ce857fe5b60200201356120e7565b848260ff1660038110610d0157fe5b6020020181815250505b6000600360008781526020019081526020016000206005018260ff1660038110610d3157fe5b01541415610d425781806001019250505b8080600101915050610be8565b50604051806060016040528085815260200160001515815260200184815250600560008681526020019081526020016000206000820151816000015560208201518160010160006101000a81548160ff021916908315150217905550604082015181600201906003610dc29291906122f2565b509050507f3fe87a796bb63522ae7b9008d51ff617ee24dbde9a0fac8ed85e5a29e781755633866003600088815260200190815260200160002060050187604051610e109493929190612ba7565b60405180910390a160038160ff161415610e545760016003600086815260200190815260200160002060080160016101000a81548160ff0219169083151502179055505b5050505050565b600b60009054906101000a900473ffffffffffffffffffffffffffffffffffffffff1681565b60076020528160005260406000208181548110610e9a57fe5b90600052602060002001600091509150505481565b60056020528060005260406000206000915090508060000154908060010160009054906101000a900460ff16905082565b600954811115610f25576040517f08c379a0000000000000000000000000000000000000000000000000000000008152600401610f1c90612dcc565b60405180910390fd5b3373ffffffffffffffffffffffffffffffffffffffff166003600083815260200190815260200160002060010160009054906101000a900473ffffffffffffffffffffffffffffffffffffffff1673ffffffffffffffffffffffffffffffffffffffff1614610fc9576040517f08c379a0000000000000000000000000000000000000000000000000000000008152600401610fc090612d0c565b60405180910390fd5b6005600082815260200190815260200160002060010160009054906101000a900460ff161561102d576040517f08c379a000000000000000000000000000000000000000000000000000000000815260040161102490612d8c565b60405180910390fd5b60005b600360ff168160ff1610156110c757600560008381526020019081526020016000206002018160ff166003811061106357fe5b0154838260ff166003811061107457fe5b602002013511156110ba576040517f08c379a00000000000000000000000000000000000000000000000000000000081526004016110b190612d6c565b60405180910390fd5b8080600101915050611030565b506000600b60009054906101000a900473ffffffffffffffffffffffffffffffffffffffff1673ffffffffffffffffffffffffffffffffffffffff166380001288846003600086815260200190815260200160002060010160009054906101000a900473ffffffffffffffffffffffffffffffffffffffff166040518363ffffffff1660e01b815260040161115d929190612c4d565b602060405180830381600087803b15801561117757600080fd5b505af115801561118b573d6000803e3d6000fd5b505050506040513d601f19601f820116820180604052508101906111af91906125df565b9050806111f1576040517f08c379a00000000000000000000000000000000000000000000000000000000081526004016111e890612ccc565b60405180910390fd5b6000805b600360ff1681101561133157600085826003811061120f57fe5b60200201351461132457611241600d826003811061122957fe5b015486836003811061123757fe5b6020020135612088565b600d826003811061124e57fe5b018190555061127b6010826003811061126357fe5b015486836003811061127157fe5b6020020135612088565b6010826003811061128857fe5b01819055506112c96005600086815260200190815260200160002060020182600381106112b157fe5b01548683600381106112bf57fe5b6020020135612088565b6005600086815260200190815260200160002060020182600381106112ea57fe5b0181905550600060056000868152602001908152602001600020600201826003811061131257fe5b015414156113235781806001019250505b5b80806001019150506111f5565b507ffe337a99fc07b4422a06a40fb4728125523f3c0977d012d21e3eb9f89edfd3603385600560008781526020019081526020016000206002018660405161137c9493929190612ba7565b60405180910390a1600381141561140f5760016005600085815260200190815260200160002060010160006101000a81548160ff0219169083151502179055507f57d01a01ec1287fb00888c92856cb0f45352809b7a5350fdd677ce76f7826299338560056000878152602001908152602001600020600201866040516114069493929190612ba7565b60405180910390a15b50505050565b3373ffffffffffffffffffffffffffffffffffffffff166003600083815260200190815260200160002060010160009054906101000a900473ffffffffffffffffffffffffffffffffffffffff1673ffffffffffffffffffffffffffffffffffffffff161461148357600080fd5b60016003600083815260200190815260200160002060010160146101000a81548160ff0219169083151502179055507f24e5bfa739656f6dd56210dbd8ccbfdabcae46f85752164562c69dffd61a320b33826040516114e3929190612c24565b60405180910390a16114f481611cb5565b1561153a5761150281611dc3565b7f7d4061e68fab364906497bb959d95ad3f052a3978fed6ce9942a2b8f737aae54816040516115319190612e48565b60405180910390a15b50565b600a546008805490501015611587576040517f08c379a000000000000000000000000000000000000000000000000000000000815260040161157e90612d2c565b60405180910390fd5b6115c7816003806020026040519081016040528092919082600360200280828437600081840152601f19601f82011690508083019250505050505061213c565b7f6825b4653b0626e0268f9c124dce0ea5cc6f826ccb2cf314459bd1c62cf011f733826009546040516115fc93929190612bed565b60405180910390a150565b6000600d8260ff166003811061161957fe5b01549050919050565b670de0b6b3a764000081565b600c60009054906101000a900473ffffffffffffffffffffffffffffffffffffffff1681565b60036020528060005260406000206000915090508060000154908060010160009054906101000a900473ffffffffffffffffffffffffffffffffffffffff16908060010160149054906101000a900460ff16908060080160009054906101000a900460ff16908060080160019054906101000a900460ff16905085565b33600660008273ffffffffffffffffffffffffffffffffffffffff1673ffffffffffffffffffffffffffffffffffffffff16815260200190815260200160002060009054906101000a900460ff1661172857600080fd5b81600660008273ffffffffffffffffffffffffffffffffffffffff1673ffffffffffffffffffffffffffffffffffffffff16815260200190815260200160002060009054906101000a900460ff1661177f57600080fd5b6000600660008573ffffffffffffffffffffffffffffffffffffffff1673ffffffffffffffffffffffffffffffffffffffff16815260200190815260200160002060006101000a81548160ff02191690831515021790555060005b6001600880549050038110156118fc578373ffffffffffffffffffffffffffffffffffffffff166008828154811061180e57fe5b9060005260206000200160009054906101000a900473ffffffffffffffffffffffffffffffffffffffff1673ffffffffffffffffffffffffffffffffffffffff1614156118ef5760086001600880549050038154811061186a57fe5b9060005260206000200160009054906101000a900473ffffffffffffffffffffffffffffffffffffffff16600882815481106118a257fe5b9060005260206000200160006101000a81548173ffffffffffffffffffffffffffffffffffffffff021916908373ffffffffffffffffffffffffffffffffffffffff1602179055506118fc565b80806001019150506117da565b50600880548061190857fe5b6001900381819060005260206000200160006101000a81549073ffffffffffffffffffffffffffffffffffffffff02191690559055600880549050600a54111561196057600a60008154809291906001900391905055505b7f95cd0920c0aa5e5da987ebe563a4f26fc5143a4c65e89cc8b1b3a23e2d7fa5ff8360405161198f9190612b8c565b60405180910390a1505050565b6119a4612332565b600360008381526020019081526020016000206040518060e0016040529081600082015481526020016001820160009054906101000a900473ffffffffffffffffffffffffffffffffffffffff1673ffffffffffffffffffffffffffffffffffffffff1673ffffffffffffffffffffffffffffffffffffffff1681526020016001820160149054906101000a900460ff1615151515815260200160028201600380602002604051908101604052809291908260038015611a79576020028201915b815481526020019060010190808311611a65575b5050505050815260200160058201600380602002604051908101604052809291908260038015611abe576020028201915b815481526020019060010190808311611aaa575b505050505081526020016008820160009054906101000a900460ff161515151581526020016008820160019054906101000a900460ff1615151515815250509050919050565b60108160038110611b1157fe5b016000915090505481565b60006003600083815260200190815260200160002060080160009054906101000a900460ff169050919050565b33600660008273ffffffffffffffffffffffffffffffffffffffff1673ffffffffffffffffffffffffffffffffffffffff16815260200190815260200160002060009054906101000a900460ff16611ba057600080fd5b6008805490508260328211158015611bb85750818111155b8015611bc5575060008114155b8015611bd2575060008214155b611bdb57600080fd5b83600a819055507f3eeb9a927605685a0c44838616e4c196655b47d4019656c814bbf5743d1e25cc33600a54604051611c15929190612c24565b60405180910390a150505050565b60095481565b600060108260ff1660038110611c3b57fe5b01549050919050565b60088181548110611c5157fe5b906000526020600020016000915054906101000a900473ffffffffffffffffffffffffffffffffffffffff1681565b600a5481565b60046020528160005260406000206020528060005260406000206000915091509054906101000a900460ff1681565b6000806000905060005b600880549050811015611dbb576004600060088381548110611cdd57fe5b9060005260206000200160009054906101000a900473ffffffffffffffffffffffffffffffffffffffff1673ffffffffffffffffffffffffffffffffffffffff1673ffffffffffffffffffffffffffffffffffffffff168152602001908152602001600020600085815260200190815260200160002060009054906101000a900460ff1615611d6d576001820191505b600a5482148015611d9e57506003600085815260200190815260200160002060010160149054906101000a900460ff165b15611dae57600192505050611dbe565b8080600101915050611cbf565b50505b919050565b611dcb6122d0565b600b60009054906101000a900473ffffffffffffffffffffffffffffffffffffffff1673ffffffffffffffffffffffffffffffffffffffff1663233fc9a26040518163ffffffff1660e01b815260040160606040518083038186803b158015611e3357600080fd5b505afa158015611e47573d6000803e3d6000fd5b505050506040513d601f19601f82011682018060405250810190611e6b91906125b6565b905060005b600360ff168160ff161015611f1957818160ff1660038110611e8e57fe5b6020020151600360008581526020019081526020016000206002018260ff1660038110611eb757fe5b015460108360ff1660038110611ec957fe5b01540110611f0c576040517f08c379a0000000000000000000000000000000000000000000000000000000008152600401611f0390612cac565b60405180910390fd5b8080600101915050611e70565b5060016003600084815260200190815260200160002060080160006101000a81548160ff0219169083151502179055506003600083815260200190815260200160002060020160036000848152602001908152602001600020600501906003611f83929190612397565b5060005b600360ff168160ff161015611fe757600360008481526020019081526020016000206002018160ff1660038110611fba57fe5b015460108260ff1660038110611fcc57fe5b01600082825401925050819055508080600101915050611f87565b50600760006003600085815260200190815260200160002060010160009054906101000a900473ffffffffffffffffffffffffffffffffffffffff1673ffffffffffffffffffffffffffffffffffffffff1673ffffffffffffffffffffffffffffffffffffffff1681526020019081526020016000208290806001815401808255809150506001900390600052602060002001600090919091909150555050565b600080600061209785856122a7565b9150915080156120dc576040517f08c379a00000000000000000000000000000000000000000000000000000000081526004016120d390612dec565b60405180910390fd5b819250505092915050565b600080828401905083811015612132576040517f08c379a000000000000000000000000000000000000000000000000000000000815260040161212990612e0c565b60405180910390fd5b8091505092915050565b6121446122d0565b6009600081548092919060010191905055506040518060e0016040528060095481526020013373ffffffffffffffffffffffffffffffffffffffff168152602001600015158152602001838152602001828152602001600015158152602001600015158152506003600060095481526020019081526020016000206000820151816000015560208201518160010160006101000a81548173ffffffffffffffffffffffffffffffffffffffff021916908373ffffffffffffffffffffffffffffffffffffffff16021790555060408201518160010160146101000a81548160ff0219169083151502179055506060820151816002019060036122479291906122f2565b5060808201518160050190600361225f9291906122f2565b5060a08201518160080160006101000a81548160ff02191690831515021790555060c08201518160080160016101000a81548160ff0219169083151502179055509050505050565b6000808284106122bf578284036000915091506122c9565b8383036001915091505b9250929050565b6040518060600160405280600390602082028036833780820191505090505090565b8260038101928215612321579160200282015b82811115612320578251825591602001919060010190612305565b5b50905061232e91906123d4565b5090565b6040518060e0016040528060008152602001600073ffffffffffffffffffffffffffffffffffffffff1681526020016000151581526020016123726122d0565b815260200161237f6122d0565b81526020016000151581526020016000151581525090565b82600381019282156123c3579182015b828111156123c25782548255916001019190600101906123a7565b5b5090506123d091906123d4565b5090565b5b808211156123ed5760008160009055506001016123d5565b5090565b6000813590506124008161309b565b92915050565b60008190508260206003028201111561241e57600080fd5b92915050565b600082601f83011261243557600080fd5b600361244861244382612f0c565b612edf565b9150818385602084028201111561245e57600080fd5b60005b8381101561248e578161247488826124c2565b845260208401935060208301925050600181019050612461565b5050505092915050565b6000815190506124a7816130b2565b92915050565b6000813590506124bc816130c9565b92915050565b6000815190506124d1816130c9565b92915050565b6000813590506124e6816130e0565b92915050565b6000602082840312156124fe57600080fd5b600061250c848285016123f1565b91505092915050565b6000806040838503121561252857600080fd5b6000612536858286016123f1565b9250506020612547858286016124ad565b9150509250929050565b60006060828403121561256357600080fd5b600061257184828501612406565b91505092915050565b6000806080838503121561258d57600080fd5b600061259b85828601612406565b92505060606125ac858286016124ad565b9150509250929050565b6000606082840312156125c857600080fd5b60006125d684828501612424565b91505092915050565b6000602082840312156125f157600080fd5b60006125ff84828501612498565b91505092915050565b60006020828403121561261a57600080fd5b6000612628848285016124ad565b91505092915050565b60006020828403121561264357600080fd5b6000612651848285016124d7565b91505092915050565b60006126668383612b6e565b60208301905092915050565b61267b81612ff8565b82525050565b61268a81612fa3565b82525050565b61269981612fa3565b82525050565b6126ab60608383613052565b5050565b6126b881612f42565b6126c28184612f72565b92506126cd82612f2e565b8060005b838110156126fe5781516126e5878261265a565b96506126f083612f58565b9250506001810190506126d1565b505050505050565b61270f81612f4d565b6127198184612f7d565b925061272482612f38565b8060005b8381101561275c576127398261307b565b612743878261265a565b965061274e83612f65565b925050600181019050612728565b505050505050565b61276d81612fb5565b82525050565b61277c81612fb5565b82525050565b61278b8161300a565b82525050565b600061279e602083612f88565b91507f43616e206e6f7420617070726f76652074686174206d75636820616d6f756e746000830152602082019050919050565b60006127de601b83612f88565b91507f4c6f616e205061796d656e74206e6f742073756363657366756c6c00000000006000830152602082019050919050565b600061281e601c83612f88565b91507f4c6f616e205769746864726177206e6f742073756363657366756c6c000000006000830152602082019050919050565b600061285e601183612f88565b91507f636f6d70616e79206e6f742d65786973740000000000000000000000000000006000830152602082019050919050565b600061289e601483612f88565b91507f696e73756666696369656e74207369676e6565730000000000000000000000006000830152602082019050919050565b60006128de601583612f88565b91507f6e6f7420617070726f76656420666f72206c6f616e00000000000000000000006000830152602082019050919050565b600061291e602b83612f88565b91507f446f6e277420686176652074686174206d756368206f662072656d61696e696e60008301527f672072657061796d656e740000000000000000000000000000000000000000006020830152604082019050919050565b6000612984600e83612f88565b91507f616c7265616479207265706169640000000000000000000000000000000000006000830152602082019050919050565b60006129c4602883612f88565b91507f616d6f756e7420726571756573746564206578636565647320616d6f756e742060008301527f617070726f7665640000000000000000000000000000000000000000000000006020830152604082019050919050565b6000612a2a600f83612f88565b91507f696e76616c6964206c6f616e20696400000000000000000000000000000000006000830152602082019050919050565b6000612a6a601183612f88565b91507f4552525f5355425f554e444552464c4f570000000000000000000000000000006000830152602082019050919050565b6000612aaa601083612f88565b91507f4552525f4144445f4f564552464c4f57000000000000000000000000000000006000830152602082019050919050565b61016082016000820151612af46000850182612b6e565b506020820151612b076020850182612681565b506040820151612b1a6040850182612764565b506060820151612b2d60608501826126af565b506080820151612b4060c08501826126af565b5060a0820151612b54610120850182612764565b5060c0820151612b68610140850182612764565b50505050565b612b7781612fe1565b82525050565b612b8681612fe1565b82525050565b6000602082019050612ba16000830184612690565b92915050565b600061010082019050612bbd6000830187612672565b612bca602083018661269f565b612bd76080830185612706565b612be460e0830184612b7d565b95945050505050565b600060a082019050612c026000830186612672565b612c0f602083018561269f565b612c1c6080830184612b7d565b949350505050565b6000604082019050612c396000830185612672565b612c466020830184612b7d565b9392505050565b6000608082019050612c62600083018561269f565b612c6f6060830184612690565b9392505050565b6000602082019050612c8b6000830184612773565b92915050565b6000602082019050612ca66000830184612782565b92915050565b60006020820190508181036000830152612cc581612791565b9050919050565b60006020820190508181036000830152612ce5816127d1565b9050919050565b60006020820190508181036000830152612d0581612811565b9050919050565b60006020820190508181036000830152612d2581612851565b9050919050565b60006020820190508181036000830152612d4581612891565b9050919050565b60006020820190508181036000830152612d65816128d1565b9050919050565b60006020820190508181036000830152612d8581612911565b9050919050565b60006020820190508181036000830152612da581612977565b9050919050565b60006020820190508181036000830152612dc5816129b7565b9050919050565b60006020820190508181036000830152612de581612a1d565b9050919050565b60006020820190508181036000830152612e0581612a5d565b9050919050565b60006020820190508181036000830152612e2581612a9d565b9050919050565b600061016082019050612e426000830184612add565b92915050565b6000602082019050612e5d6000830184612b7d565b92915050565b600060a082019050612e786000830188612b7d565b612e856020830187612690565b612e926040830186612773565b612e9f6060830185612773565b612eac6080830184612773565b9695505050505050565b6000604082019050612ecb6000830185612b7d565b612ed86020830184612773565b9392505050565b6000604051905081810181811067ffffffffffffffff82111715612f0257600080fd5b8060405250919050565b600067ffffffffffffffff821115612f2357600080fd5b602082029050919050565b6000819050919050565b6000819050919050565b600060039050919050565b600060039050919050565b6000602082019050919050565b6000600182019050919050565b600081905092915050565b600081905092915050565b600082825260208201905092915050565b6000819050919050565b6000612fae82612fc1565b9050919050565b60008115159050919050565b600073ffffffffffffffffffffffffffffffffffffffff82169050919050565b6000819050919050565b600060ff82169050919050565b60006130038261302e565b9050919050565b60006130158261301c565b9050919050565b600061302782612fc1565b9050919050565b600061303982613040565b9050919050565b600061304b82612fc1565b9050919050565b82818337600083830152505050565b600061307461306f8361308e565b612f99565b9050919050565b60006130878254613061565b9050919050565b60008160001c9050919050565b6130a481612fa3565b81146130af57600080fd5b50565b6130bb81612fb5565b81146130c657600080fd5b50565b6130d281612fe1565b81146130dd57600080fd5b50565b6130e981612feb565b81146130f457600080fd5b5056fea2646970667358221220199b8e5baf92cec45e15d5e85a696ec7d300a25da5bf8cc34a787199b16b174464736f6c634300060c0033",
  "immutableReferences": {},
  "source": "// SPDX-License-Identifier: UNLICENSED\r\npragma solidity ^0.6.0;\r\npragma experimental ABIEncoderV2;\r\n\r\nimport '../Interfaces/Erc20Interface.sol';\r\nimport '../Interfaces/RoyaleInterface.sol';\r\nimport './MathLib.sol';\r\n\r\n\r\ncontract rLoan is rNum{\r\n    uint8 constant N_COINS = 3;\r\n    \r\n    Erc20[N_COINS] tokens;\r\n\r\n    uint constant public MAX_SIGNEE_COUNT = 50;\r\n    \r\n    mapping(uint256 => Transaction) public transactions;\r\n    mapping(address => mapping (uint256 => bool)) public confirmations;\r\n    mapping(uint256 => Repayment) public gamingCompanyRepayment;\r\n    mapping(address => bool) public isSignee;\r\n  \r\n    mapping(address => uint[])public takenLoan;\r\n    address[] public signees;\r\n    uint256 public transactionCount = 0;\r\n   \r\n    uint256 public required;\r\n\r\n    RoyaleInterface public royale;\r\n\r\n    address public ownerAddress;\r\n\r\n    uint256[N_COINS] public totalLoanTaken;\r\n    uint256[N_COINS] public totalApprovedLoan;\r\n    \r\n    struct Transaction {\r\n        uint256 transactionId;\r\n        address iGamingCompany;\r\n        bool isGamingCompanySigned;\r\n        uint256[N_COINS] tokenAmounts;\r\n        uint256[N_COINS] remAmt;\r\n        bool approved;\r\n        bool executed;\r\n    }\r\n\r\n    struct Repayment {\r\n        uint256 transactionID;\r\n        bool isRepaymentDone;\r\n        uint256[N_COINS] remainingTokenAmounts;\r\n    }\r\n\r\n\r\n    /* Events */\r\n\r\n    event loanRequested(\r\n        address by,\r\n        uint[N_COINS] amounts,\r\n        uint loanID\r\n    );\r\n\r\n    event signed(\r\n        address signee,\r\n        uint loanID\r\n    );\r\n\r\n    event approved(\r\n        uint loanID\r\n    );\r\n\r\n    event addedRequiredSignee(\r\n        address adder,\r\n        uint numberOfSignees\r\n    );\r\n\r\n    event signeeAdded(\r\n        address signee\r\n    );\r\n\r\n    event signeeRemoved(\r\n        address signee\r\n    );\r\n\r\n    event loanWithdrawn(\r\n        address by,\r\n        uint[N_COINS] requestedAmount,\r\n        uint[N_COINS] remainingAmount,\r\n        uint loanID\r\n    );\r\n\r\n    event loanFulfilled(\r\n        address by,\r\n        uint[N_COINS] requestedAmount,\r\n        uint[N_COINS] remainingAmount,\r\n        uint loanID\r\n    );\r\n\r\n    event loanRepayed(\r\n        address by,\r\n        uint[N_COINS] repayedAmount,\r\n        uint[N_COINS] amountRemaining,\r\n        uint loanID\r\n    );\r\n\r\n    event wholeLoanRepayed(\r\n        address by,\r\n        uint[N_COINS] repayedAmount,\r\n        uint[N_COINS] amountRemaining,\r\n        uint loanID\r\n    );\r\n\r\n    /* Modifiers */\r\n\r\n    modifier onlyOwner {\r\n        require(msg.sender == ownerAddress);\r\n        _;\r\n    }\r\n\r\n    modifier signeeExists(address signee) {\r\n        require(isSignee[signee]);\r\n        _;\r\n    }\r\n\r\n    modifier transactionExists(uint _loanID) {\r\n        require(_loanID > 0 && _loanID <= transactionCount);\r\n        _;\r\n    }\r\n\r\n    modifier notConfirmed(address addr,uint _loanID) {\r\n        require(!confirmations[addr][_loanID]);\r\n        _;\r\n    }\r\n\r\n    modifier validRequirement(uint signeeCount, uint _required) {\r\n        require(signeeCount <= MAX_SIGNEE_COUNT\r\n            && _required <= signeeCount\r\n            && _required != 0\r\n            && signeeCount != 0);\r\n        _;\r\n    }\r\n\r\n\r\n    constructor(address[N_COINS] memory _tokens , address _royale) public {\r\n        ownerAddress = msg.sender;\r\n        isSignee[msg.sender] = true;\r\n        signees.push(msg.sender);\r\n\r\n        // Set Tokens supported by Pool\r\n        for(uint8 i=0; i<N_COINS; i++) {\r\n            tokens[i] = Erc20(_tokens[i]);\r\n            royale = RoyaleInterface(_royale);\r\n        }\r\n    }\r\n\r\n    /* Internal Functions */\r\n\r\n    function _addTransaction(\r\n       uint256[N_COINS] memory amounts\r\n    ) internal {\r\n        uint256[N_COINS] memory zero;\r\n\r\n        transactionCount++;\r\n        transactions[transactionCount] = Transaction({\r\n            transactionId: transactionCount,\r\n            iGamingCompany: msg.sender,\r\n            tokenAmounts: amounts,\r\n            remAmt: zero,\r\n            isGamingCompanySigned: false,\r\n            approved: false,\r\n            executed: false\r\n        });\r\n        \r\n    }\r\n\r\n    function _approveLoan(uint _loanID) internal {\r\n        uint256[N_COINS] memory am=royale.getTotalPoolBalance();\r\n        for(uint8 i=0;i<N_COINS;i++) {\r\n            require(totalApprovedLoan[i]+transactions[_loanID].tokenAmounts[i]<am[i],\"Can not approve that much amount\");\r\n        }\r\n\r\n        transactions[_loanID].approved = true;\r\n        transactions[_loanID].remAmt = transactions[_loanID].tokenAmounts;\r\n\r\n        for(uint8 i=0;i<N_COINS;i++){\r\n            totalApprovedLoan[i] +=transactions[_loanID].tokenAmounts[i];\r\n        }\r\n        takenLoan[transactions[_loanID].iGamingCompany].push(_loanID);\r\n    }\r\n\r\n    function _isConfirmed(\r\n        uint _loanID\r\n    ) internal view returns (bool) {\r\n        uint count = 0;\r\n        for (uint i=0; i<signees.length; i++) {\r\n            if (confirmations[signees[i]][_loanID])\r\n                count += 1;\r\n            if (count == required && transactions[_loanID].isGamingCompanySigned)\r\n                return true;\r\n        }\r\n    }\r\n\r\n  \r\n    /* USER FUNCTIONS (exposed to frontend) */\r\n\r\n    // Gaming platforms withdraw using this\r\n    function requestLoan(\r\n        uint256[N_COINS] calldata amounts\r\n    ) external  {\r\n       require(signees.length >= required, \"insufficient signees\");\r\n       _addTransaction(amounts);\r\n\r\n       emit loanRequested(msg.sender, amounts, transactionCount);\r\n    }\r\n    \r\n    \r\n    // Gaming Platforms signs using this\r\n    function signTransaction(uint _loanID) public {\r\n        require(transactions[_loanID].iGamingCompany == msg.sender);\r\n        \r\n        transactions[_loanID].isGamingCompanySigned = true;\r\n\r\n        emit signed(msg.sender, _loanID);\r\n\r\n        if(_isConfirmed(_loanID)) {\r\n           _approveLoan(_loanID);\r\n           emit approved(_loanID);\r\n        }\r\n    }\r\n    \r\n    // Signee signs using this\r\n    function confirmLoan(uint _loanID) public\r\n        signeeExists(msg.sender)\r\n        transactionExists(_loanID)\r\n        notConfirmed( msg.sender,_loanID) \r\n    {\r\n        confirmations[msg.sender][_loanID] = true;\r\n        \r\n        emit signed(msg.sender, _loanID);\r\n\r\n        if(_isConfirmed(_loanID)) {\r\n           _approveLoan(_loanID);\r\n           emit approved(_loanID);\r\n        }\r\n    }\r\n\r\n    function getTransactionDetail(\r\n        uint _loanID\r\n    ) public view returns(Transaction memory){\r\n        return transactions[_loanID];\r\n    }\r\n\r\n    function checkLoanApproved(uint _loanID) external view returns(bool) {\r\n        return transactions[_loanID].approved;\r\n    }\r\n\r\n    /* Admin Function */\r\n    \r\n    function setRequiredSignee(\r\n        uint _required\r\n    ) public signeeExists(msg.sender) validRequirement(signees.length, _required) {\r\n        required = _required;\r\n\r\n        emit addedRequiredSignee(msg.sender, required);\r\n    }\r\n\r\n    function addSignee(address signee) public signeeExists(msg.sender) {\r\n        isSignee[signee] = true;\r\n        signees.push(signee);\r\n\r\n        emit signeeAdded(signee);\r\n    }\r\n    \r\n    function removeSignee(address signee) public signeeExists(msg.sender) signeeExists(signee) {\r\n        \r\n        isSignee[signee] = false;\r\n        for (uint i=0; i<signees.length - 1; i++) {\r\n            if (signees[i] == signee) {\r\n                signees[i] = signees[signees.length - 1];\r\n                break;\r\n            }\r\n        }\r\n        signees.pop();\r\n        \r\n        if (required > signees.length) {\r\n            required--;\r\n        }\r\n\r\n        emit signeeRemoved(signee);\r\n    } \r\n    \r\n    function getArrayLength()public view returns(uint256){\r\n        return signees.length;\r\n    }\r\n\r\n    function withdrawLoan( \r\n        uint256[N_COINS] calldata amounts,\r\n        uint _loanID\r\n    ) external {\r\n\r\n        require(transactions[_loanID].iGamingCompany == msg.sender, \"company not-exist\");\r\n        require(transactions[_loanID].approved, \"not approved for loan\");\r\n        uint256[N_COINS] memory loanAmount;\r\n        for(uint8 i=0; i<N_COINS; i++) {\r\n            require(\r\n                transactions[_loanID].remAmt[i] >= amounts[i], \r\n                \"amount requested exceeds amount approved\"\r\n            );\r\n        }\r\n        bool b = royale._loanWithdraw(amounts,transactions[_loanID].iGamingCompany);\r\n        require(b, \"Loan Withdraw not succesfull\");\r\n\r\n        uint8 check = 0;\r\n        for(uint8 i=0; i<N_COINS; i++) {\r\n            if(amounts[i] > 0) {\r\n                totalLoanTaken[i] += amounts[i];\r\n                transactions[_loanID].remAmt[i] =bsub(transactions[_loanID].remAmt[i], amounts[i]);\r\n                loanAmount[i]=badd(gamingCompanyRepayment[_loanID].remainingTokenAmounts[i],amounts[i]);\r\n            }\r\n            if(transactions[_loanID].remAmt[i] == 0) {\r\n                check++;\r\n            }\r\n        }\r\n        gamingCompanyRepayment[_loanID] = Repayment({\r\n                  transactionID: _loanID,\r\n                  isRepaymentDone: false,\r\n                  remainingTokenAmounts: loanAmount\r\n        });\r\n\r\n\r\n        emit loanWithdrawn(msg.sender, amounts, transactions[_loanID].remAmt, _loanID);\r\n\r\n        if(check == 3) {\r\n            // Loan fulfilled, company used all its loan\r\n            transactions[_loanID].executed = true;\r\n        }\r\n    } \r\n    \r\n    \r\n    function repayLoan(uint256[N_COINS] calldata _amounts, uint _loanId) external {\r\n        require(_loanId <= transactionCount, \"invalid loan id\");\r\n        require(transactions[_loanId].iGamingCompany == msg.sender, \"company not-exist\");\r\n        require(!gamingCompanyRepayment[_loanId].isRepaymentDone, \"already repaid\");\r\n        for(uint8 i=0;i<N_COINS;i++){\r\n            require(_amounts[i]<=gamingCompanyRepayment[_loanId].remainingTokenAmounts[i],\"Don't have that much of remaining repayment\");\r\n        }\r\n        bool b = royale._loanRepayment(_amounts,transactions[_loanId].iGamingCompany);\r\n        require(b,\"Loan Payment not succesfull\");\r\n        uint counter=0;\r\n        for(uint i=0;i<N_COINS;i++) {\r\n            if(_amounts[i]!=0) {\r\n                totalLoanTaken[i] =bsub(totalLoanTaken[i],_amounts[i]);\r\n                totalApprovedLoan[i]=bsub(totalApprovedLoan[i],_amounts[i]);\r\n                gamingCompanyRepayment[_loanId].remainingTokenAmounts[i] =bsub(gamingCompanyRepayment[_loanId].remainingTokenAmounts[i], _amounts[i]);\r\n                if(gamingCompanyRepayment[_loanId].remainingTokenAmounts[i] == 0) {\r\n                    counter++;\r\n                }\r\n            }\r\n        }\r\n\r\n        emit loanRepayed(\r\n            msg.sender,\r\n            _amounts, \r\n            gamingCompanyRepayment[_loanId].remainingTokenAmounts,\r\n            _loanId\r\n        );\r\n\r\n            if(counter==3){\r\n                gamingCompanyRepayment[_loanId].isRepaymentDone=true;\r\n\r\n                emit wholeLoanRepayed(\r\n                    msg.sender,\r\n                    _amounts, \r\n                    gamingCompanyRepayment[_loanId].remainingTokenAmounts,\r\n                    _loanId\r\n                );\r\n            }       \r\n    }\r\n    \r\n   \r\n\r\n   /* functions for UI */\r\n\r\n    function getTotalTakenLoan(uint8 _number)public view returns(uint){\r\n        return totalLoanTaken[_number];\r\n    }\r\n\r\n    function getTotalApprovedLoan(uint8 _number)public view returns(uint){\r\n        return totalApprovedLoan[_number];\r\n    }\r\n}",
  "sourcePath": "C:/Users/MayankVats/Desktop/WORK/blockchain/Royale/rlp/contracts/rLoan.sol",
  "compiler": {
    "name": "solc",
    "version": "0.6.12+commit.27d51765.Emscripten.clang"
  },
  "schemaVersion": "3.3.2",
  "updatedAt": "2020-12-29T13:12:46.491Z",
  "devdoc": {
    "kind": "dev",
    "methods": {},
    "version": 1
  },
  "userdoc": {
    "kind": "user",
    "methods": {},
    "version": 1
  }
}