{
  "contractName": "RoyaleLP",
  "abi": [
    {
      "inputs": [
        {
          "internalType": "address[3]",
          "name": "_tokens",
          "type": "address[3]"
        },
        {
          "internalType": "address",
          "name": "_rpToken",
          "type": "address"
        }
      ],
      "stateMutability": "nonpayable",
      "type": "constructor"
    },
    {
      "anonymous": false,
      "inputs": [
        {
          "indexed": false,
          "internalType": "address",
          "name": "user",
          "type": "address"
        },
        {
          "indexed": false,
          "internalType": "uint256[3]",
          "name": "amounts",
          "type": "uint256[3]"
        }
      ],
      "name": "userAddedToQ",
      "type": "event"
    },
    {
      "anonymous": false,
      "inputs": [
        {
          "indexed": false,
          "internalType": "address",
          "name": "user",
          "type": "address"
        },
        {
          "indexed": false,
          "internalType": "uint256[3]",
          "name": "amounts",
          "type": "uint256[3]"
        }
      ],
      "name": "userRecieved",
      "type": "event"
    },
    {
      "anonymous": false,
      "inputs": [
        {
          "indexed": false,
          "internalType": "address",
          "name": "user",
          "type": "address"
        },
        {
          "indexed": false,
          "internalType": "uint256[3]",
          "name": "amounts",
          "type": "uint256[3]"
        }
      ],
      "name": "userSupplied",
      "type": "event"
    },
    {
      "inputs": [],
      "name": "BASE_DECIMAL",
      "outputs": [
        {
          "internalType": "uint256",
          "name": "",
          "type": "uint256"
        }
      ],
      "stateMutability": "view",
      "type": "function"
    },
    {
      "inputs": [
        {
          "internalType": "uint256",
          "name": "",
          "type": "uint256"
        }
      ],
      "name": "YieldPoolBalance",
      "outputs": [
        {
          "internalType": "uint256",
          "name": "",
          "type": "uint256"
        }
      ],
      "stateMutability": "view",
      "type": "function"
    },
    {
      "inputs": [
        {
          "internalType": "address",
          "name": "",
          "type": "address"
        },
        {
          "internalType": "uint256",
          "name": "",
          "type": "uint256"
        }
      ],
      "name": "amountSupplied",
      "outputs": [
        {
          "internalType": "uint256",
          "name": "",
          "type": "uint256"
        }
      ],
      "stateMutability": "view",
      "type": "function"
    },
    {
      "inputs": [],
      "name": "fees",
      "outputs": [
        {
          "internalType": "uint128",
          "name": "",
          "type": "uint128"
        }
      ],
      "stateMutability": "view",
      "type": "function"
    },
    {
      "inputs": [
        {
          "internalType": "address",
          "name": "",
          "type": "address"
        }
      ],
      "name": "isInQ",
      "outputs": [
        {
          "internalType": "bool",
          "name": "",
          "type": "bool"
        }
      ],
      "stateMutability": "view",
      "type": "function"
    },
    {
      "inputs": [],
      "name": "loanContract",
      "outputs": [
        {
          "internalType": "address",
          "name": "",
          "type": "address"
        }
      ],
      "stateMutability": "view",
      "type": "function"
    },
    {
      "inputs": [
        {
          "internalType": "uint256",
          "name": "",
          "type": "uint256"
        }
      ],
      "name": "loanGiven",
      "outputs": [
        {
          "internalType": "uint256",
          "name": "",
          "type": "uint256"
        }
      ],
      "stateMutability": "view",
      "type": "function"
    },
    {
      "inputs": [],
      "name": "lock_period",
      "outputs": [
        {
          "internalType": "uint128",
          "name": "",
          "type": "uint128"
        }
      ],
      "stateMutability": "view",
      "type": "function"
    },
    {
      "inputs": [],
      "name": "owner",
      "outputs": [
        {
          "internalType": "address",
          "name": "",
          "type": "address"
        }
      ],
      "stateMutability": "view",
      "type": "function"
    },
    {
      "inputs": [],
      "name": "poolPart",
      "outputs": [
        {
          "internalType": "uint128",
          "name": "",
          "type": "uint128"
        }
      ],
      "stateMutability": "view",
      "type": "function"
    },
    {
      "inputs": [
        {
          "internalType": "uint256",
          "name": "",
          "type": "uint256"
        }
      ],
      "name": "profitFromYield",
      "outputs": [
        {
          "internalType": "uint256",
          "name": "",
          "type": "uint256"
        }
      ],
      "stateMutability": "view",
      "type": "function"
    },
    {
      "inputs": [
        {
          "internalType": "uint256",
          "name": "",
          "type": "uint256"
        }
      ],
      "name": "selfBalance",
      "outputs": [
        {
          "internalType": "uint256",
          "name": "",
          "type": "uint256"
        }
      ],
      "stateMutability": "view",
      "type": "function"
    },
    {
      "inputs": [],
      "name": "thresholdTokenAmount",
      "outputs": [
        {
          "internalType": "uint256",
          "name": "",
          "type": "uint256"
        }
      ],
      "stateMutability": "view",
      "type": "function"
    },
    {
      "inputs": [
        {
          "internalType": "uint256",
          "name": "",
          "type": "uint256"
        }
      ],
      "name": "totalWithdraw",
      "outputs": [
        {
          "internalType": "uint256",
          "name": "",
          "type": "uint256"
        }
      ],
      "stateMutability": "view",
      "type": "function"
    },
    {
      "inputs": [
        {
          "internalType": "uint256[3]",
          "name": "amounts",
          "type": "uint256[3]"
        }
      ],
      "name": "calcRptAmount",
      "outputs": [
        {
          "internalType": "uint256",
          "name": "",
          "type": "uint256"
        }
      ],
      "stateMutability": "view",
      "type": "function"
    },
    {
      "inputs": [
        {
          "internalType": "address",
          "name": "addr",
          "type": "address"
        },
        {
          "internalType": "uint256",
          "name": "coin",
          "type": "uint256"
        }
      ],
      "name": "availableWithdraw",
      "outputs": [
        {
          "internalType": "uint256",
          "name": "",
          "type": "uint256"
        }
      ],
      "stateMutability": "view",
      "type": "function"
    },
    {
      "inputs": [
        {
          "internalType": "uint256[3]",
          "name": "amounts",
          "type": "uint256[3]"
        }
      ],
      "name": "supply",
      "outputs": [],
      "stateMutability": "nonpayable",
      "type": "function"
    },
    {
      "inputs": [
        {
          "internalType": "uint256[3]",
          "name": "amounts",
          "type": "uint256[3]"
        }
      ],
      "name": "requestWithdraw",
      "outputs": [],
      "stateMutability": "nonpayable",
      "type": "function"
    },
    {
      "inputs": [
        {
          "internalType": "uint256[3]",
          "name": "amounts",
          "type": "uint256[3]"
        },
        {
          "internalType": "address",
          "name": "_loanSeeker",
          "type": "address"
        }
      ],
      "name": "_loanWithdraw",
      "outputs": [
        {
          "internalType": "bool",
          "name": "",
          "type": "bool"
        }
      ],
      "stateMutability": "nonpayable",
      "type": "function"
    },
    {
      "inputs": [
        {
          "internalType": "uint256[3]",
          "name": "amounts",
          "type": "uint256[3]"
        },
        {
          "internalType": "address",
          "name": "_loanSeeker",
          "type": "address"
        }
      ],
      "name": "_loanRepayment",
      "outputs": [
        {
          "internalType": "bool",
          "name": "",
          "type": "bool"
        }
      ],
      "stateMutability": "nonpayable",
      "type": "function"
    },
    {
      "inputs": [
        {
          "internalType": "uint256[3]",
          "name": "amounts",
          "type": "uint256[3]"
        }
      ],
      "name": "depsoitInRoyale",
      "outputs": [],
      "stateMutability": "nonpayable",
      "type": "function"
    },
    {
      "inputs": [],
      "name": "deposit",
      "outputs": [],
      "stateMutability": "nonpayable",
      "type": "function"
    },
    {
      "inputs": [],
      "name": "withdraw",
      "outputs": [],
      "stateMutability": "nonpayable",
      "type": "function"
    },
    {
      "inputs": [],
      "name": "rebalance",
      "outputs": [],
      "stateMutability": "nonpayable",
      "type": "function"
    },
    {
      "inputs": [],
      "name": "getTotalPoolBalance",
      "outputs": [
        {
          "internalType": "uint256[3]",
          "name": "",
          "type": "uint256[3]"
        }
      ],
      "stateMutability": "view",
      "type": "function"
    },
    {
      "inputs": [],
      "name": "getTotalLoanGiven",
      "outputs": [
        {
          "internalType": "uint256[3]",
          "name": "",
          "type": "uint256[3]"
        }
      ],
      "stateMutability": "view",
      "type": "function"
    },
    {
      "inputs": [
        {
          "internalType": "address",
          "name": "_loanContract",
          "type": "address"
        }
      ],
      "name": "setLoanContract",
      "outputs": [
        {
          "internalType": "bool",
          "name": "",
          "type": "bool"
        }
      ],
      "stateMutability": "nonpayable",
      "type": "function"
    },
    {
      "inputs": [
        {
          "internalType": "uint128",
          "name": "_newPoolPart",
          "type": "uint128"
        }
      ],
      "name": "changePoolPart",
      "outputs": [
        {
          "internalType": "bool",
          "name": "",
          "type": "bool"
        }
      ],
      "stateMutability": "nonpayable",
      "type": "function"
    },
    {
      "inputs": [],
      "name": "getYieldProfit",
      "outputs": [],
      "stateMutability": "nonpayable",
      "type": "function"
    },
    {
      "inputs": [
        {
          "internalType": "uint256",
          "name": "_newThreshold",
          "type": "uint256"
        }
      ],
      "name": "setThresholdTokenAmount",
      "outputs": [
        {
          "internalType": "bool",
          "name": "",
          "type": "bool"
        }
      ],
      "stateMutability": "nonpayable",
      "type": "function"
    },
    {
      "inputs": [],
      "name": "setInitialDeposit",
      "outputs": [
        {
          "internalType": "bool",
          "name": "",
          "type": "bool"
        }
      ],
      "stateMutability": "nonpayable",
      "type": "function"
    },
    {
      "inputs": [
        {
          "internalType": "contract rControllerI",
          "name": "_controller",
          "type": "address"
        }
      ],
      "name": "setController",
      "outputs": [
        {
          "internalType": "bool",
          "name": "",
          "type": "bool"
        }
      ],
      "stateMutability": "nonpayable",
      "type": "function"
    },
    {
      "inputs": [
        {
          "internalType": "uint128",
          "name": "lockperiod",
          "type": "uint128"
        }
      ],
      "name": "setLockPeriod",
      "outputs": [
        {
          "internalType": "bool",
          "name": "",
          "type": "bool"
        }
      ],
      "stateMutability": "nonpayable",
      "type": "function"
    },
    {
      "inputs": [
        {
          "internalType": "uint128",
          "name": "_fees",
          "type": "uint128"
        }
      ],
      "name": "setWithdrawFees",
      "outputs": [
        {
          "internalType": "bool",
          "name": "",
          "type": "bool"
        }
      ],
      "stateMutability": "nonpayable",
      "type": "function"
    }
  ],
  "bytecode": "0x60806040526001805560006002556019600460006101000a8154816fffffffffffffffffffffffffffffffff02191690836fffffffffffffffffffffffffffffffff160217905550605f600460106101000a8154816fffffffffffffffffffffffffffffffff02191690836fffffffffffffffffffffffffffffffff1602179055506101f46011553480156200009457600080fd5b506040516200564a3803806200564a8339818101604052810190620000ba91906200026f565b33600860006101000a81548173ffffffffffffffffffffffffffffffffffffffff021916908373ffffffffffffffffffffffffffffffffffffffff16021790555060005b60036fffffffffffffffffffffffffffffffff168160ff1610156200019057828160ff16600381106200012d57fe5b602002015160098260ff16600381106200014357fe5b0160006101000a81548173ffffffffffffffffffffffffffffffffffffffff021916908373ffffffffffffffffffffffffffffffffffffffff1602179055508080600101915050620000fe565b5080600c60006101000a81548173ffffffffffffffffffffffffffffffffffffffff021916908373ffffffffffffffffffffffffffffffffffffffff16021790555050506200034f565b600081519050620001eb8162000335565b92915050565b600082601f8301126200020357600080fd5b60036200021a6200021482620002de565b620002b0565b915081838560208402820111156200023157600080fd5b60005b838110156200026557816200024a8882620001da565b84526020840193506020830192505060018101905062000234565b5050505092915050565b600080608083850312156200028357600080fd5b60006200029385828601620001f1565b9250506060620002a685828601620001da565b9150509250929050565b6000604051905081810181811067ffffffffffffffff82111715620002d457600080fd5b8060405250919050565b600067ffffffffffffffff821115620002f657600080fd5b602082029050919050565b60006200030e8262000315565b9050919050565b600073ffffffffffffffffffffffffffffffffffffffff82169050919050565b620003408162000301565b81146200034c57600080fd5b50565b6152eb806200035f6000396000f3fe608060405234801561001057600080fd5b50600436106102065760003560e01c80638da5cb5b1161011a578063b8b10680116100ad578063d0e30db01161007c578063d0e30db01461062b578063d8c76af514610635578063db28bfd014610665578063eacd7afc14610695578063f83e9a20146106c557610206565b8063b8b106801461058f578063c23177b2146105bf578063c277b657146105ef578063c89eb0361461060d57610206565b8063960731b6116100e9578063960731b6146104e15780639af1d35a14610511578063a6d8fcb21461052f578063a70200bd1461055f57610206565b80638da5cb5b146104455780638e9b032614610463578063905f692e1461048157806392eefe9b146104b157610206565b806347d4a6a81161019d5780636d6ea2571161016c5780636d6ea2571461038d5780637d7c2a1c146103bd57806380001288146103c757806381f433f0146103f75780638af814781461042757610206565b806347d4a6a8146102f357806352f6e2381461030f578063698504241461032d5780636b9f1ef61461035d57610206565b80632f1fefe3116101d95780632f1fefe31461027f57806331805a2b1461028957806331d38806146102b95780633ccfd60b146102e957610206565b80630d88122c1461020b578063224a141814610227578063233fc9a214610243578063253f284b14610261575b600080fd5b6102256004803603810190610220919061491a565b6106e3565b005b610241600480360381019061023c919061491a565b6107e1565b005b61024b610935565b6040516102589190614eff565b60405180910390f35b610269610980565b6040516102769190614de0565b60405180910390f35b6102876109a6565b005b6102a3600480360381019061029e9190614a4c565b610b14565b6040516102b09190615070565b60405180910390f35b6102d360048036038101906102ce919061488c565b610b2c565b6040516102e09190614f1a565b60405180910390f35b6102f1610bce565b005b61030d6004803603810190610308919061491a565b610d1d565b005b610317611721565b6040516103249190614f1a565b60405180910390f35b61034760048036038101906103429190614a4c565b61179d565b6040516103549190615070565b60405180910390f35b61037760048036038101906103729190614a23565b6117b5565b6040516103849190614f1a565b60405180910390f35b6103a760048036038101906103a29190614a4c565b611853565b6040516103b49190615070565b60405180910390f35b6103c561186b565b005b6103e160048036038101906103dc9190614995565b611ddb565b6040516103ee9190614f1a565b60405180910390f35b610411600480360381019061040c9190614a23565b612053565b60405161041e9190614f1a565b60405180910390f35b61042f6120f1565b60405161043c9190615070565b60405180910390f35b61044d6120fd565b60405161045a9190614de0565b60405180910390f35b61046b612123565b6040516104789190615055565b60405180910390f35b61049b6004803603810190610496919061488c565b612145565b6040516104a89190614f1a565b60405180910390f35b6104cb60048036038101906104c691906149fa565b612165565b6040516104d89190614f1a565b60405180910390f35b6104fb60048036038101906104f69190614943565b61220b565b6040516105089190615070565b60405180910390f35b610519612425565b6040516105269190615055565b60405180910390f35b610549600480360381019061054491906148b5565b612447565b6040516105569190615070565b60405180910390f35b61057960048036038101906105749190614a23565b612652565b6040516105869190614f1a565b60405180910390f35b6105a960048036038101906105a49190614a4c565b6126f0565b6040516105b69190614f1a565b60405180910390f35b6105d960048036038101906105d491906148b5565b61275c565b6040516105e69190615070565b60405180910390f35b6105f7612781565b6040516106049190614eff565b60405180910390f35b6106156127cc565b6040516106229190615070565b60405180910390f35b6106336127d2565b005b61064f600480360381019061064a9190614a4c565b612c41565b60405161065c9190615070565b60405180910390f35b61067f600480360381019061067a9190614a4c565b612c59565b60405161068c9190615070565b60405180910390f35b6106af60048036038101906106aa9190614995565b612c71565b6040516106bc9190614f1a565b60405180910390f35b6106cd612ef0565b6040516106da9190615055565b60405180910390f35b6000610725826003806020026040519081016040528092919082600360200280828437600081840152601f19601f82011690508083019250505050505061220b565b11610765576040517f08c379a000000000000000000000000000000000000000000000000000000000815260040161075c90614f35565b60405180910390fd5b6107a5816003806020026040519081016040528092919082600360200280828437600081840152601f19601f820116905080830192505050505050612f12565b7fe7f2330a99451f199f91ed2ac09887e25894cb0e14021fe5d29bc959e7283d0e33826040516107d6929190614e4d565b60405180910390a150565b60005b60036fffffffffffffffffffffffffffffffff168160ff161015610931576000828260ff166003811061081357fe5b6020020135146109245760098160ff166003811061082d57fe5b0160009054906101000a900473ffffffffffffffffffffffffffffffffffffffff1673ffffffffffffffffffffffffffffffffffffffff166323b872dd3330858560ff166003811061087b57fe5b60200201356040518463ffffffff1660e01b815260040161089e93929190614e16565b602060405180830381600087803b1580156108b857600080fd5b505af11580156108cc573d6000803e3d6000fd5b505050506040513d601f19601f820116820180604052508101906108f091906149d1565b50818160ff166003811061090057fe5b602002013560058260ff166003811061091557fe5b01600082825401925050819055505b80806001019150506107e4565b5050565b61093d6144ac565b6005600380602002604051908101604052809291908260038015610976576020028201915b815481526020019060010190808311610962575b5050505050905090565b602160009054906101000a900473ffffffffffffffffffffffffffffffffffffffff1681565b600860009054906101000a900473ffffffffffffffffffffffffffffffffffffffff1673ffffffffffffffffffffffffffffffffffffffff163373ffffffffffffffffffffffffffffffffffffffff1614610a0057600080fd5b600d60009054906101000a900473ffffffffffffffffffffffffffffffffffffffff1673ffffffffffffffffffffffffffffffffffffffff1663a9a4cbcc6040518163ffffffff1660e01b8152600401606060405180830381600087803b158015610a6a57600080fd5b505af1158015610a7e573d6000803e3d6000fd5b505050506040513d601f19601f82011682018060405250810190610aa2919061496c565b6012906003610ab29291906144ce565b5060005b60036fffffffffffffffffffffffffffffffff168160ff161015610b115760128160ff1660038110610ae457fe5b015460058260ff1660038110610af657fe5b01600082825401925050819055508080600101915050610ab6565b50565b600e8160038110610b2157fe5b016000915090505481565b6000600860009054906101000a900473ffffffffffffffffffffffffffffffffffffffff1673ffffffffffffffffffffffffffffffffffffffff163373ffffffffffffffffffffffffffffffffffffffff1614610b8857600080fd5b81602160006101000a81548173ffffffffffffffffffffffffffffffffffffffff021916908373ffffffffffffffffffffffffffffffffffffffff160217905550919050565b600860009054906101000a900473ffffffffffffffffffffffffffffffffffffffff1673ffffffffffffffffffffffffffffffffffffffff163373ffffffffffffffffffffffffffffffffffffffff1614610c2857600080fd5b6000805b60036fffffffffffffffffffffffffffffffff168160ff161015610c7d576000601b8260ff1660038110610c5c57fe5b015414610c70578180600101925050610c7d565b8080600101915050610c2c565b5060008160ff1611610cc4576040517f08c379a0000000000000000000000000000000000000000000000000000000008152600401610cbb90614f55565b60405180910390fd5b610d0a601b600380602002604051908101604052809291908260038015610d00576020028201915b815481526020019060010190808311610cec575b50505050506132ac565b610d1261339d565b610d1a6133ef565b50565b6000610d5f826003806020026040519081016040528092919082600360200280828437600081840152601f19601f82011690508083019250505050505061220b565b11610d9f576040517f08c379a0000000000000000000000000000000000000000000000000000000008152600401610d9690614f35565b60405180910390fd5b6000610de1826003806020026040519081016040528092919082600360200280828437600081840152601f19601f82011690508083019250505050505061220b565b905080600c60009054906101000a900473ffffffffffffffffffffffffffffffffffffffff1673ffffffffffffffffffffffffffffffffffffffff166370a08231336040518263ffffffff1660e01b8152600401610e3f9190614dfb565b60206040518083038186803b158015610e5757600080fd5b505afa158015610e6b573d6000803e3d6000fd5b505050506040513d601f19601f82011682018060405250810190610e8f9190614a75565b1015610ed0576040517f08c379a0000000000000000000000000000000000000000000000000000000008152600401610ec790615035565b60405180910390fd5b610ed86144ac565b610ee0613400565b9050600060019050600080600090505b60036fffffffffffffffffffffffffffffffff168160ff161015610f64576000868260ff1660038110610f1f57fe5b60200201351115610f5757858160ff1660038110610f3957fe5b6020020135610f4b338360ff16612447565b1015610f5657600092505b5b8080600101915050610ef0565b5081610fa5576040517f08c379a0000000000000000000000000000000000000000000000000000000008152600401610f9c90614f95565b60405180910390fd5b60005b60036fffffffffffffffffffffffffffffffff168160ff16101561102657838160ff1660038110610fd557fe5b6020020151868260ff1660038110610fe957fe5b602002013510801561100f57506000868260ff166003811061100757fe5b602002013514155b1561101957600191505b8080600101915050610fa8565b5080156116a057600c60009054906101000a900473ffffffffffffffffffffffffffffffffffffffff1673ffffffffffffffffffffffffffffffffffffffff16639dc29fac33866040518363ffffffff1660e01b815260040161108a929190614e76565b600060405180830381600087803b1580156110a457600080fd5b505af11580156110b8573d6000803e3d6000fd5b50505050600080600090505b60036fffffffffffffffffffffffffffffffff168160ff161015611660576000878260ff16600381106110f357fe5b60200201351115611653576000612710600460009054906101000a90046fffffffffffffffffffffffffffffffff166fffffffffffffffffffffffffffffffff16898460ff166003811061114357fe5b6020020135028161115057fe5b04888360ff166003811061116057fe5b602002013503905060098260ff166003811061117857fe5b0160009054906101000a900473ffffffffffffffffffffffffffffffffffffffff1673ffffffffffffffffffffffffffffffffffffffff1663a9059cbb33836040518363ffffffff1660e01b81526004016111d4929190614e76565b602060405180830381600087803b1580156111ee57600080fd5b505af1158015611202573d6000803e3d6000fd5b505050506040513d601f19601f8201168201806040525081019061122691906149d1565b92508261123257600080fd5b878260ff166003811061124157fe5b6020020135601660003373ffffffffffffffffffffffffffffffffffffffff1673ffffffffffffffffffffffffffffffffffffffff1681526020019081526020016000208360ff166003811061129357fe5b0160008282540392505081905550878260ff16600381106112b057fe5b602002013560058360ff16600381106112c557fe5b01600082825403925050819055506000888360ff16600381106112e457fe5b6020020135905060005b601760003373ffffffffffffffffffffffffffffffffffffffff1673ffffffffffffffffffffffffffffffffffffffff168152602001908152602001600020805490508160ff16101561164f5760011515601760003373ffffffffffffffffffffffffffffffffffffffff1673ffffffffffffffffffffffffffffffffffffffff1681526020019081526020016000208260ff168154811061138c57fe5b90600052602060002090600802016007018560ff16600381106113ab57fe5b602091828204019190069054906101000a900460ff161515141580156113d15750600082115b1561164257601760003373ffffffffffffffffffffffffffffffffffffffff1673ffffffffffffffffffffffffffffffffffffffff1681526020019081526020016000208160ff168154811061142357fe5b90600052602060002090600802016003018460ff166003811061144257fe5b015482106115c157601760003373ffffffffffffffffffffffffffffffffffffffff1673ffffffffffffffffffffffffffffffffffffffff1681526020019081526020016000208160ff168154811061149757fe5b90600052602060002090600802016003018460ff16600381106114b657fe5b0154820391506000601760003373ffffffffffffffffffffffffffffffffffffffff1673ffffffffffffffffffffffffffffffffffffffff1681526020019081526020016000208260ff168154811061150b57fe5b90600052602060002090600802016003018560ff166003811061152a57fe5b01819055506001601760003373ffffffffffffffffffffffffffffffffffffffff1673ffffffffffffffffffffffffffffffffffffffff1681526020019081526020016000208260ff168154811061157e57fe5b90600052602060002090600802016007018560ff166003811061159d57fe5b602091828204019190066101000a81548160ff021916908315150217905550611641565b81601760003373ffffffffffffffffffffffffffffffffffffffff1673ffffffffffffffffffffffffffffffffffffffff1681526020019081526020016000208260ff168154811061160f57fe5b90600052602060002090600802016003018560ff166003811061162e57fe5b0160008282540392505081905550600091505b5b80806001019150506112ee565b5050505b80806001019150506110c4565b507fe9c01f7dea3ef08b44263b3cf5963eb42309e5fb5bec9305dbe12b82f37b519c3387604051611692929190614e4d565b60405180910390a15061171a565b6116e0856003806020026040519081016040528092919082600360200280828437600081840152601f19601f820116905080830192505050505050613518565b7fe2d5e24e56e4f05473adb8bb616473de3894beab8011d32382a638d1d2617c933386604051611711929190614e4d565b60405180910390a15b5050505050565b6000600860009054906101000a900473ffffffffffffffffffffffffffffffffffffffff1673ffffffffffffffffffffffffffffffffffffffff163373ffffffffffffffffffffffffffffffffffffffff161461177d57600080fd5b611785613400565b60059060036117959291906144ce565b506001905090565b600581600381106117aa57fe5b016000915090505481565b6000600860009054906101000a900473ffffffffffffffffffffffffffffffffffffffff1673ffffffffffffffffffffffffffffffffffffffff163373ffffffffffffffffffffffffffffffffffffffff161461181157600080fd5b81600460006101000a8154816fffffffffffffffffffffffffffffffff02191690836fffffffffffffffffffffffffffffffff16021790555060019050919050565b601e816003811061186057fe5b016000915090505481565b600860009054906101000a900473ffffffffffffffffffffffffffffffffffffffff1673ffffffffffffffffffffffffffffffffffffffff163373ffffffffffffffffffffffffffffffffffffffff16146118c557600080fd5b6118cd6144ac565b6118d5613400565b90506118df6144ac565b6118e76144ac565b6118ef61450e565b600d60009054906101000a900473ffffffffffffffffffffffffffffffffffffffff1673ffffffffffffffffffffffffffffffffffffffff1663b49a60bb6040518163ffffffff1660e01b8152600401606060405180830381600087803b15801561195957600080fd5b505af115801561196d573d6000803e3d6000fd5b505050506040513d601f19601f8201168201806040525081019061199191906148f1565b905060005b60036fffffffffffffffffffffffffffffffff168160ff161015611d0257600060098260ff16600381106119c657fe5b0160009054906101000a900473ffffffffffffffffffffffffffffffffffffffff1673ffffffffffffffffffffffffffffffffffffffff1663313ce5676040518163ffffffff1660e01b815260040160206040518083038186803b158015611a2d57600080fd5b505afa158015611a41573d6000803e3d6000fd5b505050506040513d601f19601f82011682018060405250810190611a659190614a9e565b60ff16905060006064600460109054906101000a90046fffffffffffffffffffffffffffffffff166064036fffffffffffffffffffffffffffffffff1660058560ff1660038110611ab257fe5b01540281611abc57fe5b049050868360ff1660038110611ace57fe5b6020020151811115611b4957868360ff1660038110611ae957fe5b60200201518103868460ff1660038110611aff57fe5b60200201818152505081600a0a603202868460ff1660038110611b1e57fe5b60200201511015611b44576000868460ff1660038110611b3a57fe5b6020020181815250505b611cf3565b868360ff1660038110611b5857fe5b6020020151811015611cbd5780878460ff1660038110611b7457fe5b602002015103858460ff1660038110611b8957fe5b60200201818152505081600a0a603202858460ff1660038110611ba857fe5b60200201511015611bd2576000858460ff1660038110611bc457fe5b602002018181525050611cb8565b60098360ff1660038110611be257fe5b0160009054906101000a900473ffffffffffffffffffffffffffffffffffffffff1673ffffffffffffffffffffffffffffffffffffffff1663a9059cbb858560ff1660038110611c2e57fe5b6020020151878660ff1660038110611c4257fe5b60200201516040518363ffffffff1660e01b8152600401611c64929190614ed6565b602060405180830381600087803b158015611c7e57600080fd5b505af1158015611c92573d6000803e3d6000fd5b505050506040513d601f19601f82011682018060405250810190611cb691906149d1565b505b611cf2565b6000868460ff1660038110611cce57fe5b6020020181815250506000858460ff1660038110611ce857fe5b6020020181815250505b5b50508080600101915050611996565b506000805b60036fffffffffffffffffffffffffffffffff168160ff161015611d57576000848260ff1660038110611d3657fe5b60200201511115611d4a5760019150611d57565b8080600101915050611d07565b508015611d6c57611d67836136e7565b600090505b60005b60036fffffffffffffffffffffffffffffffff168160ff161015611dbf576000858260ff1660038110611d9e57fe5b60200201511115611db25760019150611dbf565b8080600101915050611d6f565b508015611dd457611dcf846132ac565b600090505b5050505050565b6000600860009054906101000a900473ffffffffffffffffffffffffffffffffffffffff1673ffffffffffffffffffffffffffffffffffffffff163373ffffffffffffffffffffffffffffffffffffffff161480611e865750602160009054906101000a900473ffffffffffffffffffffffffffffffffffffffff1673ffffffffffffffffffffffffffffffffffffffff163373ffffffffffffffffffffffffffffffffffffffff16145b611ec5576040517f08c379a0000000000000000000000000000000000000000000000000000000008152600401611ebc90614fb5565b60405180910390fd5b60005b60036fffffffffffffffffffffffffffffffff168160ff161015612048576000848260ff1660038110611ef757fe5b6020020151111561203b57838160ff1660038110611f1157fe5b6020020151601e8260ff1660038110611f2657fe5b0160008282540392505081905550838160ff1660038110611f4357fe5b602002015160058260ff1660038110611f5857fe5b016000828254019250508190555060098160ff1660038110611f7657fe5b0160009054906101000a900473ffffffffffffffffffffffffffffffffffffffff1673ffffffffffffffffffffffffffffffffffffffff166323b872dd8430878560ff1660038110611fc457fe5b60200201516040518463ffffffff1660e01b8152600401611fe793929190614e9f565b602060405180830381600087803b15801561200157600080fd5b505af1158015612015573d6000803e3d6000fd5b505050506040513d601f19601f8201168201806040525081019061203991906149d1565b505b8080600101915050611ec8565b506001905092915050565b6000600860009054906101000a900473ffffffffffffffffffffffffffffffffffffffff1673ffffffffffffffffffffffffffffffffffffffff163373ffffffffffffffffffffffffffffffffffffffff16146120af57600080fd5b81601560006101000a8154816fffffffffffffffffffffffffffffffff02191690836fffffffffffffffffffffffffffffffff16021790555060019050919050565b670de0b6b3a764000081565b600860009054906101000a900473ffffffffffffffffffffffffffffffffffffffff1681565b600460109054906101000a90046fffffffffffffffffffffffffffffffff1681565b60196020528060005260406000206000915054906101000a900460ff1681565b6000600860009054906101000a900473ffffffffffffffffffffffffffffffffffffffff1673ffffffffffffffffffffffffffffffffffffffff163373ffffffffffffffffffffffffffffffffffffffff16146121c157600080fd5b81600d60006101000a81548173ffffffffffffffffffffffffffffffffffffffff021916908373ffffffffffffffffffffffffffffffffffffffff16021790555060019050919050565b6000806000806000806122c5600c60009054906101000a900473ffffffffffffffffffffffffffffffffffffffff1673ffffffffffffffffffffffffffffffffffffffff166318160ddd6040518163ffffffff1660e01b815260040160206040518083038186803b15801561227f57600080fd5b505afa158015612293573d6000803e3d6000fd5b505050506040513d601f19601f820116820180604052508101906122b79190614a75565b670de0b6b3a76400006137d8565b905060005b60036fffffffffffffffffffffffffffffffff168160ff1610156124025760098160ff16600381106122f857fe5b0160009054906101000a900473ffffffffffffffffffffffffffffffffffffffff1673ffffffffffffffffffffffffffffffffffffffff1663313ce5676040518163ffffffff1660e01b815260040160206040518083038186803b15801561235f57600080fd5b505afa158015612373573d6000803e3d6000fd5b505050506040513d601f19601f820116820180604052508101906123979190614a9e565b60ff1693506123cd601e8260ff16600381106123af57fe5b015460058360ff16600381106123c157fe5b01540185600a0a6137d8565b850194506123f1888260ff16600381106123e357fe5b602002015185600a0a6137d8565b8301925080806001019150506122ca565b5061241661241083866137d8565b826138f8565b94508495505050505050919050565b600460009054906101000a90046fffffffffffffffffffffffffffffffff1681565b6000806000905060005b601760008673ffffffffffffffffffffffffffffffffffffffff1673ffffffffffffffffffffffffffffffffffffffff168152602001908152602001600020805490508160ff16101561264757601560009054906101000a90046fffffffffffffffffffffffffffffffff1662015180026fffffffffffffffffffffffffffffffff16601760008773ffffffffffffffffffffffffffffffffffffffff1673ffffffffffffffffffffffffffffffffffffffff1681526020019081526020016000208260ff168154811061252157fe5b90600052602060002090600802016006015442031180156125c5575060011515601760008773ffffffffffffffffffffffffffffffffffffffff1673ffffffffffffffffffffffffffffffffffffffff1681526020019081526020016000208260ff168154811061258e57fe5b906000526020600020906008020160070185600381106125aa57fe5b602091828204019190069054906101000a900460ff16151514155b1561263a57601760008673ffffffffffffffffffffffffffffffffffffffff1673ffffffffffffffffffffffffffffffffffffffff1681526020019081526020016000208160ff168154811061261757fe5b9060005260206000209060080201600301846003811061263357fe5b0154820191505b8080600101915050612451565b508091505092915050565b6000600860009054906101000a900473ffffffffffffffffffffffffffffffffffffffff1673ffffffffffffffffffffffffffffffffffffffff163373ffffffffffffffffffffffffffffffffffffffff16146126ae57600080fd5b81600460106101000a8154816fffffffffffffffffffffffffffffffff02191690836fffffffffffffffffffffffffffffffff16021790555060019050919050565b6000600860009054906101000a900473ffffffffffffffffffffffffffffffffffffffff1673ffffffffffffffffffffffffffffffffffffffff163373ffffffffffffffffffffffffffffffffffffffff161461274c57600080fd5b8160118190555060019050919050565b6016602052816000526040600020816003811061277557fe5b01600091509150505481565b6127896144ac565b601e6003806020026040519081016040528092919082600380156127c2576020028201915b8154815260200190600101908083116127ae575b5050505050905090565b60115481565b600860009054906101000a900473ffffffffffffffffffffffffffffffffffffffff1673ffffffffffffffffffffffffffffffffffffffff163373ffffffffffffffffffffffffffffffffffffffff161461282c57600080fd5b6128346144ac565b61283c613400565b9050600061284861450e565b600d60009054906101000a900473ffffffffffffffffffffffffffffffffffffffff1673ffffffffffffffffffffffffffffffffffffffff1663b49a60bb6040518163ffffffff1660e01b8152600401606060405180830381600087803b1580156128b257600080fd5b505af11580156128c6573d6000803e3d6000fd5b505050506040513d601f19601f820116820180604052508101906128ea91906148f1565b905060005b60036fffffffffffffffffffffffffffffffff168160ff161015612bcc5760098160ff166003811061291d57fe5b0160009054906101000a900473ffffffffffffffffffffffffffffffffffffffff1673ffffffffffffffffffffffffffffffffffffffff1663313ce5676040518163ffffffff1660e01b815260040160206040518083038186803b15801561298457600080fd5b505afa158015612998573d6000803e3d6000fd5b505050506040513d601f19601f820116820180604052508101906129bc9190614a9e565b60ff16925082600a0a60115402848260ff16600381106129d857fe5b60200201511115612ba457600e8160ff16600381106129f357fe5b0154848260ff1660038110612a0457fe5b6020020181815101915081815250506064600460109054906101000a90046fffffffffffffffffffffffffffffffff166fffffffffffffffffffffffffffffffff16858360ff1660038110612a5557fe5b60200201510281612a6257fe5b04848260ff1660038110612a7257fe5b602002018181525050600e8160ff1660038110612a8b57fe5b0154848260ff1660038110612a9c57fe5b602002015103848260ff1660038110612ab157fe5b60200201818152505060098160ff1660038110612aca57fe5b0160009054906101000a900473ffffffffffffffffffffffffffffffffffffffff1673ffffffffffffffffffffffffffffffffffffffff1663a9059cbb838360ff1660038110612b1657fe5b6020020151868460ff1660038110612b2a57fe5b60200201516040518363ffffffff1660e01b8152600401612b4c929190614ed6565b602060405180830381600087803b158015612b6657600080fd5b505af1158015612b7a573d6000803e3d6000fd5b505050506040513d601f19601f82011682018060405250810190612b9e91906149d1565b50612bbf565b6000848260ff1660038110612bb557fe5b6020020181815250505b80806001019150506128ef565b506000805b60036fffffffffffffffffffffffffffffffff168160ff161015612c24576000858260ff1660038110612c0057fe5b602002015114612c17578180600101925050612c24565b8080600101915050612bd1565b5060008160ff161115612c3b57612c3a846136e7565b5b50505050565b60128160038110612c4e57fe5b016000915090505481565b601b8160038110612c6657fe5b016000915090505481565b6000600860009054906101000a900473ffffffffffffffffffffffffffffffffffffffff1673ffffffffffffffffffffffffffffffffffffffff163373ffffffffffffffffffffffffffffffffffffffff161480612d1c5750602160009054906101000a900473ffffffffffffffffffffffffffffffffffffffff1673ffffffffffffffffffffffffffffffffffffffff163373ffffffffffffffffffffffffffffffffffffffff16145b612d5b576040517f08c379a0000000000000000000000000000000000000000000000000000000008152600401612d5290614fb5565b60405180910390fd5b612d64836132ac565b60005b60036fffffffffffffffffffffffffffffffff168160ff161015612ee5576000848260ff1660038110612d9657fe5b60200201511115612ed857838160ff1660038110612db057fe5b6020020151601e8260ff1660038110612dc557fe5b0160008282540192505081905550838160ff1660038110612de257fe5b602002015160058260ff1660038110612df757fe5b016000828254039250508190555060098160ff1660038110612e1557fe5b0160009054906101000a900473ffffffffffffffffffffffffffffffffffffffff1673ffffffffffffffffffffffffffffffffffffffff1663a9059cbb84868460ff1660038110612e6257fe5b60200201516040518363ffffffff1660e01b8152600401612e84929190614ed6565b602060405180830381600087803b158015612e9e57600080fd5b505af1158015612eb2573d6000803e3d6000fd5b505050506040513d601f19601f82011682018060405250810190612ed691906149d1565b505b8080600101915050612d67565b506001905092915050565b601560009054906101000a90046fffffffffffffffffffffffffffffffff1681565b6000612f1d8261220b565b9050600080600090505b60036fffffffffffffffffffffffffffffffff168160ff161015613125576000848260ff1660038110612f5657fe5b602002015111156131185760098160ff1660038110612f7157fe5b0160009054906101000a900473ffffffffffffffffffffffffffffffffffffffff1673ffffffffffffffffffffffffffffffffffffffff166323b872dd3330878560ff1660038110612fbf57fe5b60200201516040518463ffffffff1660e01b8152600401612fe293929190614e16565b602060405180830381600087803b158015612ffc57600080fd5b505af1158015613010573d6000803e3d6000fd5b505050506040513d601f19601f8201168201806040525081019061303491906149d1565b915081613076576040517f08c379a000000000000000000000000000000000000000000000000000000000815260040161306d90614fd5565b60405180910390fd5b838160ff166003811061308557fe5b602002015160058260ff166003811061309a57fe5b0160008282540192505081905550838160ff16600381106130b757fe5b6020020151601660003373ffffffffffffffffffffffffffffffffffffffff1673ffffffffffffffffffffffffffffffffffffffff1681526020019081526020016000208260ff166003811061310957fe5b01600082825401925050819055505b8080600101915050612f27565b50600c60009054906101000a900473ffffffffffffffffffffffffffffffffffffffff1673ffffffffffffffffffffffffffffffffffffffff166340c10f1933846040518363ffffffff1660e01b8152600401613183929190614e76565b600060405180830381600087803b15801561319d57600080fd5b505af11580156131b1573d6000803e3d6000fd5b505050506131bd614530565b6131c5614552565b6040518060800160405280868152602001868152602001428152602001838152509050601760003373ffffffffffffffffffffffffffffffffffffffff1673ffffffffffffffffffffffffffffffffffffffff1681526020019081526020016000208190806001815401808255809150506001900390600052602060002090600802016000909190919091506000820151816000019060036132689291906144ce565b506020820151816003019060036132809291906144ce565b50604082015181600601556060820151816007019060036132a292919061458c565b5050505050505050565b600d60009054906101000a900473ffffffffffffffffffffffffffffffffffffffff1673ffffffffffffffffffffffffffffffffffffffff1663b1b8f1be826040518263ffffffff1660e01b81526004016133079190614eff565b600060405180830381600087803b15801561332157600080fd5b505af1158015613335573d6000803e3d6000fd5b5050505060005b60036fffffffffffffffffffffffffffffffff168160ff16101561339957818160ff166003811061336957fe5b6020020151600e8260ff166003811061337e57fe5b0160008282540392505081905550808060010191505061333c565b5050565b6000601a60009054906101000a900463ffffffff16905060005b8163ffffffff168160ff1610156133eb5760006133d26139d4565b90506133dd81613acb565b5080806001019150506133b7565b5050565b600180819055506000600281905550565b6134086144ac565b6134106144ac565b60005b60036fffffffffffffffffffffffffffffffff168160ff1610156135105760098160ff166003811061344157fe5b0160009054906101000a900473ffffffffffffffffffffffffffffffffffffffff1673ffffffffffffffffffffffffffffffffffffffff166370a08231306040518263ffffffff1660e01b815260040161349b9190614de0565b60206040518083038186803b1580156134b357600080fd5b505afa1580156134c7573d6000803e3d6000fd5b505050506040513d601f19601f820116820180604052508101906134eb9190614a75565b828260ff16600381106134fa57fe5b6020020181815250508080600101915050613413565b508091505090565b60005b60036fffffffffffffffffffffffffffffffff168110156135f257600082826003811061354457fe5b602002015111156135e55781816003811061355b57fe5b6020020151601860003373ffffffffffffffffffffffffffffffffffffffff1673ffffffffffffffffffffffffffffffffffffffff16815260200190815260200160002082600381106135aa57fe5b01600082825401925050819055508181600381106135c457fe5b6020020151601b82600381106135d657fe5b01600082825401925050819055505b808060010191505061351b565b5060011515601960003373ffffffffffffffffffffffffffffffffffffffff1673ffffffffffffffffffffffffffffffffffffffff16815260200190815260200160002060009054906101000a900460ff161515146136e4576001601a60008282829054906101000a900463ffffffff160192506101000a81548163ffffffff021916908363ffffffff1602179055506001601960003373ffffffffffffffffffffffffffffffffffffffff1673ffffffffffffffffffffffffffffffffffffffff16815260200190815260200160002060006101000a81548160ff0219169083151502179055506136e333614445565b5b50565b600d60009054906101000a900473ffffffffffffffffffffffffffffffffffffffff1673ffffffffffffffffffffffffffffffffffffffff1663d4e20b01826040518263ffffffff1660e01b81526004016137429190614eff565b600060405180830381600087803b15801561375c57600080fd5b505af1158015613770573d6000803e3d6000fd5b5050505060005b60036fffffffffffffffffffffffffffffffff168160ff1610156137d457818160ff16600381106137a457fe5b6020020151600e8260ff16600381106137b957fe5b01600082825401925050819055508080600101915050613777565b5050565b60008082141561381d576040517f08c379a000000000000000000000000000000000000000000000000000000000815260040161381490615015565b60405180910390fd5b6000670de0b6b3a764000084029050600084148061384b5750670de0b6b3a764000084828161384857fe5b04145b61388a576040517f08c379a000000000000000000000000000000000000000000000000000000000815260040161388190614f75565b60405180910390fd5b60006002848161389657fe5b0482019050818110156138de576040517f08c379a00000000000000000000000000000000000000000000000000000000081526004016138d590614f75565b60405180910390fd5b60008482816138e957fe5b04905080935050505092915050565b6000808284029050600084148061391757508284828161391457fe5b04145b613956576040517f08c379a000000000000000000000000000000000000000000000000000000000815260040161394d90614ff5565b60405180910390fd5b60006002670de0b6b3a76400008161396a57fe5b0482019050818110156139b2576040517f08c379a00000000000000000000000000000000000000000000000000000000081526004016139a990614ff5565b60405180910390fd5b6000670de0b6b3a764000082816139c557fe5b04905080935050505092915050565b600060015460025410156139e757600080fd5b600080600154815260200190815260200160002060009054906101000a900473ffffffffffffffffffffffffffffffffffffffff16600360006101000a81548173ffffffffffffffffffffffffffffffffffffffff021916908373ffffffffffffffffffffffffffffffffffffffff160217905550600080600154815260200190815260200160002060006101000a81549073ffffffffffffffffffffffffffffffffffffffff021916905560018060008282540192505081905550600360009054906101000a900473ffffffffffffffffffffffffffffffffffffffff16905090565b600080613b51601860008573ffffffffffffffffffffffffffffffffffffffff1673ffffffffffffffffffffffffffffffffffffffff168152602001908152602001600020600380602002604051908101604052809291908260038015613b47576020028201915b815481526020019060010190808311613b33575b505050505061220b565b9050600c60009054906101000a900473ffffffffffffffffffffffffffffffffffffffff1673ffffffffffffffffffffffffffffffffffffffff16639dc29fac84836040518363ffffffff1660e01b8152600401613bb0929190614ed6565b600060405180830381600087803b158015613bca57600080fd5b505af1158015613bde573d6000803e3d6000fd5b5050505060005b60036fffffffffffffffffffffffffffffffff168160ff1610156143b0576000601860008673ffffffffffffffffffffffffffffffffffffffff1673ffffffffffffffffffffffffffffffffffffffff1681526020019081526020016000208260ff1660038110613c5257fe5b0154118015613caf57506000601660008673ffffffffffffffffffffffffffffffffffffffff1673ffffffffffffffffffffffffffffffffffffffff1681526020019081526020016000208260ff1660038110613cab57fe5b0154115b156143a3576000612710600460009054906101000a90046fffffffffffffffffffffffffffffffff166fffffffffffffffffffffffffffffffff16601860008873ffffffffffffffffffffffffffffffffffffffff1673ffffffffffffffffffffffffffffffffffffffff1681526020019081526020016000208460ff1660038110613d3757fe5b01540281613d4157fe5b04601860008773ffffffffffffffffffffffffffffffffffffffff1673ffffffffffffffffffffffffffffffffffffffff1681526020019081526020016000208360ff1660038110613d8f57fe5b015403905060098260ff1660038110613da457fe5b0160009054906101000a900473ffffffffffffffffffffffffffffffffffffffff1673ffffffffffffffffffffffffffffffffffffffff1663a9059cbb86836040518363ffffffff1660e01b8152600401613e00929190614ed6565b602060405180830381600087803b158015613e1a57600080fd5b505af1158015613e2e573d6000803e3d6000fd5b505050506040513d601f19601f82011682018060405250810190613e5291906149d1565b935083613e5e57600080fd5b601860008673ffffffffffffffffffffffffffffffffffffffff1673ffffffffffffffffffffffffffffffffffffffff1681526020019081526020016000208260ff1660038110613eab57fe5b0154601660008773ffffffffffffffffffffffffffffffffffffffff1673ffffffffffffffffffffffffffffffffffffffff1681526020019081526020016000208360ff1660038110613efa57fe5b0160008282540392505081905550601860008673ffffffffffffffffffffffffffffffffffffffff1673ffffffffffffffffffffffffffffffffffffffff1681526020019081526020016000208260ff1660038110613f5557fe5b0154601b8360ff1660038110613f6757fe5b01600082825403925050819055508060058360ff1660038110613f8657fe5b01600082825403925050819055506000601860008773ffffffffffffffffffffffffffffffffffffffff1673ffffffffffffffffffffffffffffffffffffffff1681526020019081526020016000208360ff1660038110613fe357fe5b0154905060005b601760008873ffffffffffffffffffffffffffffffffffffffff1673ffffffffffffffffffffffffffffffffffffffff168152602001908152602001600020805490508160ff16101561434b5760011515601760008973ffffffffffffffffffffffffffffffffffffffff1673ffffffffffffffffffffffffffffffffffffffff1681526020019081526020016000208260ff168154811061408857fe5b90600052602060002090600802016007018560ff16600381106140a757fe5b602091828204019190069054906101000a900460ff161515141580156140cd5750600082115b1561433e57601760008873ffffffffffffffffffffffffffffffffffffffff1673ffffffffffffffffffffffffffffffffffffffff1681526020019081526020016000208160ff168154811061411f57fe5b90600052602060002090600802016003018460ff166003811061413e57fe5b015482106142bd57601760008873ffffffffffffffffffffffffffffffffffffffff1673ffffffffffffffffffffffffffffffffffffffff1681526020019081526020016000208160ff168154811061419357fe5b90600052602060002090600802016003018460ff16600381106141b257fe5b0154820391506000601760008973ffffffffffffffffffffffffffffffffffffffff1673ffffffffffffffffffffffffffffffffffffffff1681526020019081526020016000208260ff168154811061420757fe5b90600052602060002090600802016003018560ff166003811061422657fe5b01819055506001601760008973ffffffffffffffffffffffffffffffffffffffff1673ffffffffffffffffffffffffffffffffffffffff1681526020019081526020016000208260ff168154811061427a57fe5b90600052602060002090600802016007018560ff166003811061429957fe5b602091828204019190066101000a81548160ff02191690831515021790555061433d565b81601760008973ffffffffffffffffffffffffffffffffffffffff1673ffffffffffffffffffffffffffffffffffffffff1681526020019081526020016000208260ff168154811061430b57fe5b90600052602060002090600802016003018560ff166003811061432a57fe5b0160008282540392505081905550600091505b5b8080600101915050613fea565b506000601860008873ffffffffffffffffffffffffffffffffffffffff1673ffffffffffffffffffffffffffffffffffffffff1681526020019081526020016000208460ff166003811061439b57fe5b018190555050505b8080600101915050613be5565b506000601960008573ffffffffffffffffffffffffffffffffffffffff1673ffffffffffffffffffffffffffffffffffffffff16815260200190815260200160002060006101000a81548160ff0219169083151502179055506001601a60008282829054906101000a900463ffffffff160392506101000a81548163ffffffff021916908363ffffffff160217905550505050565b600160026000828254019250508190555080600080600254815260200190815260200160002060006101000a81548173ffffffffffffffffffffffffffffffffffffffff021916908373ffffffffffffffffffffffffffffffffffffffff16021790555050565b6040518060600160405280600390602082028036833780820191505090505090565b82600381019282156144fd579160200282015b828111156144fc5782518255916020019190600101906144e1565b5b50905061450a9190614625565b5090565b6040518060600160405280600390602082028036833780820191505090505090565b6040518060600160405280600390602082028036833780820191505090505090565b60405180608001604052806145656144ac565b81526020016145726144ac565b815260200160008152602001614586614530565b81525090565b826003601f016020900481019282156146145791602002820160005b838211156145e557835183826101000a81548160ff02191690831515021790555092602001926001016020816000010492830192600103026145a8565b80156146125782816101000a81549060ff02191690556001016020816000010492830192600103026145e5565b505b5090506146219190614642565b5090565b5b8082111561463e576000816000905550600101614626565b5090565b5b8082111561466657600081816101000a81549060ff021916905550600101614643565b5090565b60008135905061467981615214565b92915050565b600082601f83011261469057600080fd5b60036146a361469e826150b8565b61508b565b915081838560208402820111156146b957600080fd5b60005b838110156146e957816146cf8882614823565b8452602084019350602083019250506001810190506146bc565b5050505092915050565b60008190508260206003028201111561470b57600080fd5b92915050565b600082601f83011261472257600080fd5b6003614735614730826150da565b61508b565b9150818385602084028201111561474b57600080fd5b60005b8381101561477b5781614761888261484d565b84526020840193506020830192505060018101905061474e565b5050505092915050565b600082601f83011261479657600080fd5b60036147a96147a4826150da565b61508b565b915081838560208402820111156147bf57600080fd5b60005b838110156147ef57816147d58882614862565b8452602084019350602083019250506001810190506147c2565b5050505092915050565b6000815190506148088161522b565b92915050565b60008135905061481d81615242565b92915050565b60008151905061483281615259565b92915050565b60008135905061484781615270565b92915050565b60008135905061485c81615287565b92915050565b60008151905061487181615287565b92915050565b6000815190506148868161529e565b92915050565b60006020828403121561489e57600080fd5b60006148ac8482850161466a565b91505092915050565b600080604083850312156148c857600080fd5b60006148d68582860161466a565b92505060206148e78582860161484d565b9150509250929050565b60006060828403121561490357600080fd5b60006149118482850161467f565b91505092915050565b60006060828403121561492c57600080fd5b600061493a848285016146f3565b91505092915050565b60006060828403121561495557600080fd5b600061496384828501614711565b91505092915050565b60006060828403121561497e57600080fd5b600061498c84828501614785565b91505092915050565b600080608083850312156149a857600080fd5b60006149b685828601614711565b92505060606149c78582860161466a565b9150509250929050565b6000602082840312156149e357600080fd5b60006149f1848285016147f9565b91505092915050565b600060208284031215614a0c57600080fd5b6000614a1a8482850161480e565b91505092915050565b600060208284031215614a3557600080fd5b6000614a4384828501614838565b91505092915050565b600060208284031215614a5e57600080fd5b6000614a6c8482850161484d565b91505092915050565b600060208284031215614a8757600080fd5b6000614a9584828501614862565b91505092915050565b600060208284031215614ab057600080fd5b6000614abe84828501614877565b91505092915050565b6000614ad38383614dc2565b60208301905092915050565b614ae8816151cf565b82525050565b614af78161513a565b82525050565b614b0960608383615205565b5050565b614b1681615106565b614b20818461511e565b9250614b2b826150fc565b8060005b83811015614b5c578151614b438782614ac7565b9650614b4e83615111565b925050600181019050614b2f565b505050505050565b614b6d8161514c565b82525050565b6000614b80601283615129565b91507f7a65726f20746f6b656e7320737570706c7900000000000000000000000000006000830152602082019050919050565b6000614bc0601483615129565b91507f776974686472617720717565756520656d7074790000000000000000000000006000830152602082019050919050565b6000614c00601083615129565b91507f4552525f4449565f494e5445524e414c000000000000000000000000000000006000830152602082019050919050565b6000614c40601a83615129565b91507f6c6f636b20706572696f64207c206e6f7420737570706c6965640000000000006000830152602082019050919050565b6000614c80600e83615129565b91507f6e6f7420617574686f72697a65640000000000000000000000000000000000006000830152602082019050919050565b6000614cc0601783615129565b91507f5472616e73666572206e6f74207375636365737366756c0000000000000000006000830152602082019050919050565b6000614d00601083615129565b91507f4552525f4d554c5f4f564552464c4f57000000000000000000000000000000006000830152602082019050919050565b6000614d40600c83615129565b91507f4552525f4449565f5a45524f00000000000000000000000000000000000000006000830152602082019050919050565b6000614d80600783615129565b91507f6c6f7720525054000000000000000000000000000000000000000000000000006000830152602082019050919050565b614dbc8161517c565b82525050565b614dcb816151b8565b82525050565b614dda816151b8565b82525050565b6000602082019050614df56000830184614aee565b92915050565b6000602082019050614e106000830184614adf565b92915050565b6000606082019050614e2b6000830186614adf565b614e386020830185614aee565b614e456040830184614dd1565b949350505050565b6000608082019050614e626000830185614adf565b614e6f6020830184614afd565b9392505050565b6000604082019050614e8b6000830185614adf565b614e986020830184614dd1565b9392505050565b6000606082019050614eb46000830186614aee565b614ec16020830185614aee565b614ece6040830184614dd1565b949350505050565b6000604082019050614eeb6000830185614aee565b614ef86020830184614dd1565b9392505050565b6000606082019050614f146000830184614b0d565b92915050565b6000602082019050614f2f6000830184614b64565b92915050565b60006020820190508181036000830152614f4e81614b73565b9050919050565b60006020820190508181036000830152614f6e81614bb3565b9050919050565b60006020820190508181036000830152614f8e81614bf3565b9050919050565b60006020820190508181036000830152614fae81614c33565b9050919050565b60006020820190508181036000830152614fce81614c73565b9050919050565b60006020820190508181036000830152614fee81614cb3565b9050919050565b6000602082019050818103600083015261500e81614cf3565b9050919050565b6000602082019050818103600083015261502e81614d33565b9050919050565b6000602082019050818103600083015261504e81614d73565b9050919050565b600060208201905061506a6000830184614db3565b92915050565b60006020820190506150856000830184614dd1565b92915050565b6000604051905081810181811067ffffffffffffffff821117156150ae57600080fd5b8060405250919050565b600067ffffffffffffffff8211156150cf57600080fd5b602082029050919050565b600067ffffffffffffffff8211156150f157600080fd5b602082029050919050565b6000819050919050565b600060039050919050565b6000602082019050919050565b600081905092915050565b600082825260208201905092915050565b600061514582615198565b9050919050565b60008115159050919050565b60006151638261513a565b9050919050565b60006151758261513a565b9050919050565b60006fffffffffffffffffffffffffffffffff82169050919050565b600073ffffffffffffffffffffffffffffffffffffffff82169050919050565b6000819050919050565b600060ff82169050919050565b60006151da826151e1565b9050919050565b60006151ec826151f3565b9050919050565b60006151fe82615198565b9050919050565b82818337600083830152505050565b61521d8161513a565b811461522857600080fd5b50565b6152348161514c565b811461523f57600080fd5b50565b61524b81615158565b811461525657600080fd5b50565b6152628161516a565b811461526d57600080fd5b50565b6152798161517c565b811461528457600080fd5b50565b615290816151b8565b811461529b57600080fd5b50565b6152a7816151c2565b81146152b257600080fd5b5056fea2646970667358221220ed958eb4d6b0de4f7172c265196bfbae808a45c6cdbfc791dcbe649720c3205664736f6c634300060c0033",
  "immutableReferences": {},
  "source": "// SPDX-License-Identifier: UNLICENSED\r\npragma solidity ^0.6.0;\r\npragma experimental ABIEncoderV2;\r\n\r\nimport './MathLib.sol';\r\nimport './RoyaleLPstorage.sol';\r\n\r\n\r\ncontract RoyaleLP is RoyaleLPstorage, rNum {\r\n\r\n    modifier onlyOwner {\r\n        require(msg.sender == owner);\r\n        _;\r\n    }\r\n\r\n    modifier onlyAuthorized {\r\n        require(msg.sender == owner || msg.sender == loanContract,\"not authorized\");\r\n        _;\r\n    }\r\n\r\n    constructor(\r\n        address[N_COINS] memory _tokens,\r\n        address _rpToken\r\n    ) public {\r\n        owner = msg.sender;\r\n\r\n        for(uint8 i=0; i<N_COINS; i++) {\r\n            tokens[i] = Erc20(_tokens[i]);\r\n        }\r\n        rpToken = Erc20(_rpToken);\r\n    }\r\n    \r\n    /* EVENTS */\r\n    event userSupplied(\r\n        address user,\r\n        uint[N_COINS] amounts\r\n    );\r\n\r\n    event userRecieved(\r\n        address user,\r\n        uint[N_COINS] amounts\r\n    );\r\n\r\n    event userAddedToQ(\r\n        address user,\r\n        uint[N_COINS] amounts\r\n    );\r\n\r\n    /* INTERNAL FUNCTIONS */\r\n\r\n    function _getBalances() internal view returns(uint256[N_COINS] memory) {\r\n        uint256[N_COINS] memory balances;\r\n\r\n        for(uint8 i=0; i<N_COINS; i++) {\r\n            balances[i] = tokens[i].balanceOf(address(this));\r\n        }\r\n\r\n        return balances;\r\n    }\r\n\r\n\r\n\r\n    // functions related to deposit and supply\r\n\r\n    // This function deposits the fund to Yield Optimizer\r\n    function _deposit(uint256[N_COINS] memory amounts) internal {\r\n        controller.deposit(amounts);\r\n        \r\n        for(uint8 i=0; i<N_COINS; i++) {\r\n            YieldPoolBalance[i] += amounts[i];\r\n        }\r\n    }\r\n\r\n\r\n\r\n    //Internal Calculation For User Supply \r\n\r\n    function _supply(uint256[N_COINS] memory amounts) internal {\r\n        uint256 mintTokens;        \r\n        mintTokens = calcRptAmount(amounts);    \r\n        \r\n        bool result;\r\n        for(uint8 i=0; i<N_COINS; i++) {\r\n            if(amounts[i] > 0) {\r\n                result = tokens[i].transferFrom(\r\n                    msg.sender, \r\n                    address(this), \r\n                    amounts[i]\r\n                );\r\n                require(result,\"Transfer not successful\");\r\n                selfBalance[i] += amounts[i];\r\n                amountSupplied[msg.sender][i] += amounts[i];\r\n            }\r\n        }\r\n        rpToken.mint(msg.sender, mintTokens);\r\n        bool[N_COINS] memory falseArray;\r\n        depositDetails memory d = depositDetails(amounts, amounts, now, falseArray);\r\n        supplyTime[msg.sender].push(d);\r\n    }\r\n\r\n\r\n\r\n    // functions related to withdraw, withdraw queue and withdraw from Yield Optimizer\r\n    function _takeBack(address recipient) internal {\r\n        bool result;\r\n\r\n        uint256 burnAmt;\r\n\r\n        burnAmt = calcRptAmount(amountWithdraw[recipient]);\r\n        rpToken.burn(recipient, burnAmt);\r\n\r\n        for(uint8 i=0; i<N_COINS; i++) {\r\n            if(\r\n                amountWithdraw[recipient][i] > 0 \r\n                && \r\n                amountSupplied[recipient][i] > 0\r\n            ) {\r\n                uint temp = amountWithdraw[recipient][i] - (amountWithdraw[recipient][i] * fees) / 10000;\r\n                result = tokens[i].transfer(\r\n                    recipient,  \r\n                    temp\r\n                );\r\n                require(result);\r\n                amountSupplied[recipient][i] -= amountWithdraw[recipient][i];\r\n                totalWithdraw[i] -= amountWithdraw[recipient][i];\r\n                selfBalance[i] -= temp;\r\n                uint x = amountWithdraw[recipient][i];\r\n                for(uint8 j=0; j<supplyTime[recipient].length; j++) {\r\n                    if(supplyTime[recipient][j].withdrawn[i] != true && x > 0) {\r\n                        if(x >= supplyTime[recipient][j].remAmt[i]) {\r\n                            x = x - supplyTime[recipient][j].remAmt[i];\r\n                            supplyTime[recipient][j].remAmt[i] = 0;\r\n                            supplyTime[recipient][j].withdrawn[i] = true;\r\n                        }\r\n                        else {\r\n                            supplyTime[recipient][j].remAmt[i] -= x;\r\n                            x = 0;\r\n                        }\r\n                    }\r\n                }\r\n\r\n                amountWithdraw[recipient][i] = 0;\r\n   \r\n            }\r\n        }\r\n        isInQ[recipient] = false;\r\n        recipientCount -= 1;\r\n    }\r\n\r\n\r\n\r\n\r\n    // this will fulfill withdraw requests from the queue\r\n    function _giveBack() internal {\r\n        \r\n        uint32 counter = recipientCount;\r\n        for(uint8 i=0; i<counter; i++) {\r\n            address recipient = getFromQ();\r\n            _takeBack(recipient);\r\n        }\r\n\r\n    }\r\n\r\n\r\n\r\n\r\n\r\n    // this will add unfulfilled withdraw requests to the queue\r\n    function _takeBackQ(uint256[N_COINS] memory amounts) internal {\r\n        \r\n        for(uint256 i=0; i<N_COINS; i++) {\r\n            if(amounts[i] > 0) {\r\n                amountWithdraw[msg.sender][i] += amounts[i];\r\n                totalWithdraw[i] += amounts[i];\r\n            }\r\n        }\r\n\r\n        if(isInQ[msg.sender] != true) {\r\n            recipientCount += 1;\r\n            isInQ[msg.sender] = true;\r\n            addToQ(msg.sender);\r\n        }\r\n\r\n    }\r\n\r\n\r\n\r\n\r\n    // this will withdraw from Yield Optimizer into this contract\r\n    function _withdraw(uint256[N_COINS] memory amounts) internal {\r\n        controller.withdraw(amounts);\r\n\r\n        for(uint8 i=0; i<N_COINS; i++) {\r\n            YieldPoolBalance[i] -= amounts[i];\r\n        }\r\n    }\r\n\r\n\r\n\r\n    //This function calculate RPT to be mint or burn\r\n    function calcRptAmount(uint256[N_COINS] memory amounts) public view returns(uint256) {\r\n        uint256 rptAmt;\r\n        uint256 total = 0;\r\n        uint256 decimal = 0;\r\n        uint256 totalSuppliedTokens;\r\n        uint256 totalRPTSupply;\r\n\r\n        totalRPTSupply = bdiv(rpToken.totalSupply(), 10**18);\r\n      \r\n        for(uint8 i=0; i<N_COINS; i++) {\r\n            decimal = tokens[i].decimals();\r\n            total += bdiv(selfBalance[i]+loanGiven[i], 10**decimal);\r\n            totalSuppliedTokens += bdiv(amounts[i], 10**decimal);\r\n        }\r\n     \r\n        rptAmt = bmul(bdiv(totalSuppliedTokens, total), totalRPTSupply);        \r\n\r\n        return rptAmt;\r\n    }\r\n\r\n\r\n\r\n    //function to check available amount to withdraw for user\r\n    function availableWithdraw(address addr, uint coin) public view returns(uint256) {\r\n\r\n        uint256 amount=0;\r\n        for(uint8 j=0; j<supplyTime[addr].length; j++) {\r\n            if(\r\n                ((now - supplyTime[addr][j].time) \r\n                > \r\n                (24 * 60 * 60 * lock_period))\r\n                &&\r\n                supplyTime[addr][j].withdrawn[coin] != true\r\n            ) {\r\n                amount += supplyTime[addr][j].remAmt[coin];\r\n            }\r\n        }\r\n\r\n        return amount;\r\n    }\r\n\r\n\r\n\r\n\r\n    /* USER FUNCTIONS (exposed to frontend) */\r\n\r\n    function supply(uint256[N_COINS] calldata amounts) external {\r\n        require(\r\n            calcRptAmount(amounts) > 0,\r\n            \"zero tokens supply\"\r\n        );\r\n        \r\n        _supply(amounts);\r\n\r\n        emit userSupplied(msg.sender, amounts);\r\n    }\r\n\r\n    function requestWithdraw(uint256[N_COINS] calldata amounts) external {\r\n        require(\r\n            calcRptAmount(amounts) > 0,\r\n            \"zero tokens supply\"\r\n        );\r\n\r\n        uint256 burnAmt;\r\n        burnAmt = calcRptAmount(amounts);\r\n        require(\r\n            rpToken.balanceOf(msg.sender) >= burnAmt, \r\n            \"low RPT\"\r\n        );\r\n        \r\n        uint256[N_COINS] memory poolBalance;\r\n        poolBalance = _getBalances();\r\n        \r\n        bool checkTime = true;\r\n        bool instant;\r\n        \r\n        // check if user is withdrawing before lock period\r\n        for(uint8 i=0; i<N_COINS; i++) {\r\n            if(amounts[i] > 0) {\r\n                if(availableWithdraw(msg.sender, i) < amounts[i]) {\r\n                    checkTime = false;\r\n                }\r\n            }\r\n        }\r\n        require(checkTime, \"lock period | not supplied\");\r\n\r\n        // check if instant withdraw\r\n        for(uint8 i=0; i<N_COINS; i++) {\r\n            if(amounts[i] < poolBalance[i] && amounts[i] != 0) {\r\n                instant = true;\r\n            }\r\n        }\r\n\r\n        if(instant) {\r\n            rpToken.burn(msg.sender, burnAmt);\r\n            bool result;\r\n            for(uint8 i=0; i<N_COINS; i++) {\r\n                if(amounts[i] > 0) {\r\n                    uint temp = amounts[i] - (amounts[i] * fees) / 10000;\r\n                    result = tokens[i].transfer(msg.sender, temp);\r\n                    require(result);\r\n                    amountSupplied[msg.sender][i] -= amounts[i];\r\n                    selfBalance[i] -= amounts[i];\r\n                    \r\n                    uint x = amounts[i];\r\n                    for(uint8 j=0; j<supplyTime[msg.sender].length; j++) {\r\n                        if(supplyTime[msg.sender][j].withdrawn[i] != true && x > 0) {\r\n                            if(x >= supplyTime[msg.sender][j].remAmt[i]) {\r\n                                x = x - supplyTime[msg.sender][j].remAmt[i];\r\n                                supplyTime[msg.sender][j].remAmt[i] = 0;\r\n                                supplyTime[msg.sender][j].withdrawn[i] = true;\r\n                            }\r\n                            else {\r\n                                supplyTime[msg.sender][j].remAmt[i] -= x;\r\n                                x = 0;\r\n                            }\r\n                        }\r\n                    }\r\n\r\n                }\r\n            }\r\n\r\n            emit userRecieved(msg.sender, amounts);\r\n        } else {\r\n            _takeBackQ(amounts);\r\n\r\n            emit userAddedToQ(msg.sender, amounts);\r\n        }\r\n    }\r\n \r\n    // Following two functions are called by rLoan Only\r\n    function _loanWithdraw(\r\n        uint256[N_COINS] memory amounts, \r\n        address _loanSeeker\r\n    ) public onlyAuthorized returns(bool) {\r\n        _withdraw(amounts);\r\n\r\n        for(uint8 i=0; i<N_COINS; i++) {\r\n            if(amounts[i] > 0) {\r\n                loanGiven[i] += amounts[i];\r\n                selfBalance[i] -= amounts[i];\r\n                tokens[i].transfer(_loanSeeker, amounts[i]);\r\n            }\r\n        }\r\n        return true;\r\n    }\r\n\r\n    //Function only called by multisig contract for transfering tokens\r\n    function _loanRepayment(\r\n        uint256[N_COINS] memory amounts, \r\n        address _loanSeeker\r\n    ) public onlyAuthorized returns(bool) {\r\n        for(uint8 i=0; i<N_COINS; i++) {\r\n            if(amounts[i] > 0) {\r\n                loanGiven[i] -= amounts[i];\r\n                selfBalance[i] += amounts[i];\r\n                tokens[i].transferFrom(_loanSeeker, address(this), amounts[i]);\r\n            }\r\n        }\r\n        return true;\r\n    }\r\n\r\n    // this function deposits without minting RPT\r\n    function depsoitInRoyale(uint256[N_COINS] calldata amounts) external {\r\n        for(uint8 i=0;i<N_COINS;i++){\r\n            if(amounts[i]!=0){\r\n             tokens[i].transferFrom(msg.sender,address(this),amounts[i]);\r\n             selfBalance[i]+=amounts[i];\r\n            }\r\n        }\r\n    }\r\n\r\n\r\n    /* CORE FUNCTIONS (also exposed to frontend but to be called by owner only) */\r\n\r\n    //function for deposit in pool for yield\r\n    function deposit() onlyOwner external {\r\n        uint256[N_COINS] memory amounts = _getBalances();\r\n        uint256 decimal;\r\n\r\n        rStrategyI[3] memory strat = controller.getStrategies();\r\n\r\n        for(uint8 i=0; i<N_COINS; i++) {\r\n            decimal = tokens[i].decimals();\r\n            if(amounts[i] > thresholdTokenAmount*10**decimal) {\r\n                amounts[i] += YieldPoolBalance[i];\r\n                amounts[i] = (amounts[i] * poolPart) / 100;\r\n                amounts[i] = amounts[i] - YieldPoolBalance[i];\r\n                tokens[i].transfer(address(strat[i]), amounts[i]);\r\n            }\r\n            else {\r\n                amounts[i] = 0;\r\n            }\r\n        }\r\n\r\n        uint8 counter = 0;\r\n        for(uint8 i=0; i<N_COINS; i++) {\r\n           if(amounts[i] != 0) {\r\n               counter++;\r\n               break;\r\n           }\r\n        }\r\n\r\n        if(counter > 0){\r\n            _deposit(amounts);\r\n        }\r\n    }\r\n\r\n    //Function available in ui for owner , withdrawing from Pool(curve or any other)\r\n    function withdraw() onlyOwner external {\r\n\r\n        uint8 counter = 0;\r\n        for(uint8 i=0; i<N_COINS; i++) {\r\n           if(totalWithdraw[i] != 0) {\r\n               counter++;\r\n               break;\r\n           }\r\n        }\r\n\r\n        require(counter > 0, \"withdraw queue empty\");\r\n\r\n        _withdraw(totalWithdraw);\r\n        _giveBack();\r\n        resetQueue();\r\n    }\r\n\r\n    //function for rebalancing pool(ratio)      \r\n    function rebalance() onlyOwner external {\r\n        uint256[N_COINS] memory currentAmount = _getBalances();\r\n        uint256[N_COINS] memory amountToWithdraw;\r\n        uint256[N_COINS] memory amountToDeposit;\r\n\r\n        rStrategyI[3] memory strat = controller.getStrategies();\r\n\r\n        for(uint8 i=0;i<N_COINS;i++) {\r\n           uint256 decimal=tokens[i].decimals();\r\n           uint256 a = (selfBalance[i] * (100 - poolPart)) / 100;\r\n           if(a > currentAmount[i]) {\r\n              amountToWithdraw[i] = a - currentAmount[i];\r\n              if(amountToWithdraw[i]<(50*(10**decimal))){\r\n                  amountToWithdraw[i]=0;\r\n              }\r\n           }\r\n           else if(a < currentAmount[i]) {\r\n               amountToDeposit[i] = currentAmount[i] - a;\r\n               if(amountToDeposit[i]<(50*(10**decimal))){\r\n                   amountToDeposit[i]=0;\r\n               }\r\n               else{\r\n                  tokens[i].transfer(address(strat[i]), amountToDeposit[i]);\r\n               }\r\n           }\r\n           else {\r\n               amountToWithdraw[i] = 0;\r\n               amountToDeposit[i] = 0;\r\n           }\r\n        }\r\n\r\n        bool check=false;\r\n        for(uint8 i=0; i<N_COINS; i++) {\r\n            if(amountToDeposit[i] > 0) {\r\n                  check = true;\r\n                  break;\r\n            }\r\n        }\r\n\r\n        if(check){\r\n             _deposit(amountToDeposit);\r\n             check = false;\r\n        }\r\n\r\n        for(uint8 i=0; i<N_COINS; i++) {\r\n            if(amountToWithdraw[i] > 0) {\r\n                  check = true;\r\n                  break;\r\n            }\r\n        }\r\n        \r\n        if(check) {\r\n            _withdraw(amountToWithdraw);\r\n             check = false;\r\n        }\r\n\r\n    }\r\n\r\n\r\n    /* ADMIN FUNCTIONS */\r\n\r\n    \r\n    function getTotalPoolBalance() external view returns(uint256[3] memory) {\r\n        return selfBalance;\r\n    }\r\n\r\n    function getTotalLoanGiven() external view returns(uint256[3] memory) {\r\n        return loanGiven;\r\n    }\r\n\r\n    function setLoanContract(address _loanContract)external onlyOwner returns(bool){\r\n        loanContract=_loanContract;\r\n    }\r\n\r\n    function changePoolPart(uint128 _newPoolPart) external onlyOwner returns(bool) {\r\n        poolPart = _newPoolPart;\r\n        return true;\r\n    }\r\n\r\n    function getYieldProfit() external onlyOwner {\r\n        profitFromYield=controller.getTotalProfit();\r\n\r\n        for(uint8 i=0;i<N_COINS;i++){\r\n            selfBalance[i] += profitFromYield[i];\r\n        }\r\n    }\r\n\r\n    function setThresholdTokenAmount(uint256 _newThreshold) external onlyOwner returns(bool) {\r\n        thresholdTokenAmount = _newThreshold;\r\n        return true;\r\n    }\r\n\r\n    function setInitialDeposit() onlyOwner external returns(bool) {\r\n        selfBalance = _getBalances();\r\n        return true;\r\n    }\r\n\r\n    function setController(rControllerI _controller) onlyOwner external returns(bool) {\r\n        controller = _controller;\r\n        return true;\r\n    }\r\n\r\n    function setLockPeriod(uint128 lockperiod) onlyOwner external returns(bool) {\r\n        lock_period = lockperiod;\r\n        return true;\r\n    }\r\n\r\n    function setWithdrawFees(uint128 _fees) onlyOwner external returns(bool) {\r\n        fees = _fees;\r\n        return true;\r\n    }\r\n\r\n}",
  "sourcePath": "C:/Users/MayankVats/Desktop/WORK/blockchain/Royale/rlp/contracts/RoyaleLP.sol",
  "compiler": {
    "name": "solc",
    "version": "0.6.12+commit.27d51765.Emscripten.clang"
  },
  "schemaVersion": "3.3.2",
  "updatedAt": "2020-12-29T07:54:56.661Z",
  "devdoc": {
    "kind": "dev",
    "methods": {},
    "version": 1
  },
  "userdoc": {
    "kind": "user",
    "methods": {},
    "version": 1
  }
}